{
    "abi": [
        {
            "type": "constructor",
            "inputs": [
                {
                    "name": "initialSupply",
                    "type": "uint256",
                    "internalType": "uint256"
                },
                {
                    "name": "metadataUrl",
                    "type": "string",
                    "internalType": "string"
                }
            ],
            "stateMutability": "nonpayable"
        },
        {
            "type": "function",
            "name": "MAX_SUPPLY",
            "inputs": [],
            "outputs": [
                {
                    "name": "",
                    "type": "uint256",
                    "internalType": "uint256"
                }
            ],
            "stateMutability": "view"
        },
        {
            "type": "function",
            "name": "allowance",
            "inputs": [
                {
                    "name": "owner",
                    "type": "address",
                    "internalType": "address"
                },
                {
                    "name": "spender",
                    "type": "address",
                    "internalType": "address"
                }
            ],
            "outputs": [
                {
                    "name": "",
                    "type": "uint256",
                    "internalType": "uint256"
                }
            ],
            "stateMutability": "view"
        },
        {
            "type": "function",
            "name": "approve",
            "inputs": [
                {
                    "name": "spender",
                    "type": "address",
                    "internalType": "address"
                },
                {
                    "name": "value",
                    "type": "uint256",
                    "internalType": "uint256"
                }
            ],
            "outputs": [
                {
                    "name": "",
                    "type": "bool",
                    "internalType": "bool"
                }
            ],
            "stateMutability": "nonpayable"
        },
        {
            "type": "function",
            "name": "balanceOf",
            "inputs": [
                {
                    "name": "account",
                    "type": "address",
                    "internalType": "address"
                }
            ],
            "outputs": [
                {
                    "name": "",
                    "type": "uint256",
                    "internalType": "uint256"
                }
            ],
            "stateMutability": "view"
        },
        {
            "type": "function",
            "name": "decimals",
            "inputs": [],
            "outputs": [
                {
                    "name": "",
                    "type": "uint8",
                    "internalType": "uint8"
                }
            ],
            "stateMutability": "view"
        },
        {
            "type": "function",
            "name": "getMaxSupply",
            "inputs": [],
            "outputs": [
                {
                    "name": "",
                    "type": "uint256",
                    "internalType": "uint256"
                }
            ],
            "stateMutability": "pure"
        },
        {
            "type": "function",
            "name": "getMetadataUrl",
            "inputs": [],
            "outputs": [
                {
                    "name": "",
                    "type": "string",
                    "internalType": "string"
                }
            ],
            "stateMutability": "view"
        },
        {
            "type": "function",
            "name": "getTotalMinted",
            "inputs": [],
            "outputs": [
                {
                    "name": "",
                    "type": "uint256",
                    "internalType": "uint256"
                }
            ],
            "stateMutability": "view"
        },
        {
            "type": "function",
            "name": "mint",
            "inputs": [
                {
                    "name": "to",
                    "type": "address",
                    "internalType": "address"
                },
                {
                    "name": "amount",
                    "type": "uint256",
                    "internalType": "uint256"
                }
            ],
            "outputs": [],
            "stateMutability": "nonpayable"
        },
        {
            "type": "function",
            "name": "name",
            "inputs": [],
            "outputs": [
                {
                    "name": "",
                    "type": "string",
                    "internalType": "string"
                }
            ],
            "stateMutability": "view"
        },
        {
            "type": "function",
            "name": "owner",
            "inputs": [],
            "outputs": [
                {
                    "name": "",
                    "type": "address",
                    "internalType": "address"
                }
            ],
            "stateMutability": "view"
        },
        {
            "type": "function",
            "name": "renounceOwnership",
            "inputs": [],
            "outputs": [],
            "stateMutability": "nonpayable"
        },
        {
            "type": "function",
            "name": "symbol",
            "inputs": [],
            "outputs": [
                {
                    "name": "",
                    "type": "string",
                    "internalType": "string"
                }
            ],
            "stateMutability": "view"
        },
        {
            "type": "function",
            "name": "totalSupply",
            "inputs": [],
            "outputs": [
                {
                    "name": "",
                    "type": "uint256",
                    "internalType": "uint256"
                }
            ],
            "stateMutability": "view"
        },
        {
            "type": "function",
            "name": "transfer",
            "inputs": [
                {
                    "name": "to",
                    "type": "address",
                    "internalType": "address"
                },
                {
                    "name": "value",
                    "type": "uint256",
                    "internalType": "uint256"
                }
            ],
            "outputs": [
                {
                    "name": "",
                    "type": "bool",
                    "internalType": "bool"
                }
            ],
            "stateMutability": "nonpayable"
        },
        {
            "type": "function",
            "name": "transferFrom",
            "inputs": [
                {
                    "name": "from",
                    "type": "address",
                    "internalType": "address"
                },
                {
                    "name": "to",
                    "type": "address",
                    "internalType": "address"
                },
                {
                    "name": "value",
                    "type": "uint256",
                    "internalType": "uint256"
                }
            ],
            "outputs": [
                {
                    "name": "",
                    "type": "bool",
                    "internalType": "bool"
                }
            ],
            "stateMutability": "nonpayable"
        },
        {
            "type": "function",
            "name": "transferOwnership",
            "inputs": [
                {
                    "name": "newOwner",
                    "type": "address",
                    "internalType": "address"
                }
            ],
            "outputs": [],
            "stateMutability": "nonpayable"
        },
        {
            "type": "event",
            "name": "Approval",
            "inputs": [
                {
                    "name": "owner",
                    "type": "address",
                    "indexed": true,
                    "internalType": "address"
                },
                {
                    "name": "spender",
                    "type": "address",
                    "indexed": true,
                    "internalType": "address"
                },
                {
                    "name": "value",
                    "type": "uint256",
                    "indexed": false,
                    "internalType": "uint256"
                }
            ],
            "anonymous": false
        },
        {
            "type": "event",
            "name": "OwnershipTransferred",
            "inputs": [
                {
                    "name": "previousOwner",
                    "type": "address",
                    "indexed": true,
                    "internalType": "address"
                },
                {
                    "name": "newOwner",
                    "type": "address",
                    "indexed": true,
                    "internalType": "address"
                }
            ],
            "anonymous": false
        },
        {
            "type": "event",
            "name": "Transfer",
            "inputs": [
                {
                    "name": "from",
                    "type": "address",
                    "indexed": true,
                    "internalType": "address"
                },
                {
                    "name": "to",
                    "type": "address",
                    "indexed": true,
                    "internalType": "address"
                },
                {
                    "name": "value",
                    "type": "uint256",
                    "indexed": false,
                    "internalType": "uint256"
                }
            ],
            "anonymous": false
        },
        {
            "type": "error",
            "name": "ERC20InsufficientAllowance",
            "inputs": [
                {
                    "name": "spender",
                    "type": "address",
                    "internalType": "address"
                },
                {
                    "name": "allowance",
                    "type": "uint256",
                    "internalType": "uint256"
                },
                {
                    "name": "needed",
                    "type": "uint256",
                    "internalType": "uint256"
                }
            ]
        },
        {
            "type": "error",
            "name": "ERC20InsufficientBalance",
            "inputs": [
                {
                    "name": "sender",
                    "type": "address",
                    "internalType": "address"
                },
                {
                    "name": "balance",
                    "type": "uint256",
                    "internalType": "uint256"
                },
                {
                    "name": "needed",
                    "type": "uint256",
                    "internalType": "uint256"
                }
            ]
        },
        {
            "type": "error",
            "name": "ERC20InvalidApprover",
            "inputs": [
                {
                    "name": "approver",
                    "type": "address",
                    "internalType": "address"
                }
            ]
        },
        {
            "type": "error",
            "name": "ERC20InvalidReceiver",
            "inputs": [
                {
                    "name": "receiver",
                    "type": "address",
                    "internalType": "address"
                }
            ]
        },
        {
            "type": "error",
            "name": "ERC20InvalidSender",
            "inputs": [
                {
                    "name": "sender",
                    "type": "address",
                    "internalType": "address"
                }
            ]
        },
        {
            "type": "error",
            "name": "ERC20InvalidSpender",
            "inputs": [
                {
                    "name": "spender",
                    "type": "address",
                    "internalType": "address"
                }
            ]
        },
        {
            "type": "error",
            "name": "ExceedsMaxSupply",
            "inputs": []
        },
        {
            "type": "error",
            "name": "InvalidInitialSupply",
            "inputs": []
        },
        {
            "type": "error",
            "name": "OwnableInvalidOwner",
            "inputs": [
                {
                    "name": "owner",
                    "type": "address",
                    "internalType": "address"
                }
            ]
        },
        {
            "type": "error",
            "name": "OwnableUnauthorizedAccount",
            "inputs": [
                {
                    "name": "account",
                    "type": "address",
                    "internalType": "address"
                }
            ]
        }
    ],
    "bytecode": {
        "object": "0x608060405234801561000f575f5ffd5b50604051611fec380380611fec833981810160405281019061003191906106e3565b336040518060400160405280600881526020017f476f20486f7273650000000000000000000000000000000000000000000000008152506040518060400160405280600481526020017f474f484f0000000000000000000000000000000000000000000000000000000081525081600390816100ad9190610944565b5080600490816100bd9190610944565b5050505f73ffffffffffffffffffffffffffffffffffffffff168173ffffffffffffffffffffffffffffffffffffffff1603610130575f6040517f1e4fbdf70000000000000000000000000000000000000000000000000000000081526004016101279190610a52565b60405180910390fd5b61013f816101fa60201b60201c565b5069010f0cf064dd59200000821115610184576040517fc2c5358f00000000000000000000000000000000000000000000000000000000815260040160405180910390fd5b80600690816101939190610944565b506101c8336101a66102bd60201b60201c565b600a6101b29190610bd3565b846101bd9190610c1d565b6102c560201b60201c565b6101d66102bd60201b60201c565b600a6101e29190610bd3565b826101ed9190610c1d565b6007819055505050610cee565b5f60055f9054906101000a900473ffffffffffffffffffffffffffffffffffffffff1690508160055f6101000a81548173ffffffffffffffffffffffffffffffffffffffff021916908373ffffffffffffffffffffffffffffffffffffffff1602179055508173ffffffffffffffffffffffffffffffffffffffff168173ffffffffffffffffffffffffffffffffffffffff167f8be0079c531659141344cd1fd0a4f28419497f9722a3daafe3b4186f6b6457e060405160405180910390a35050565b5f6012905090565b5f73ffffffffffffffffffffffffffffffffffffffff168273ffffffffffffffffffffffffffffffffffffffff1603610335575f6040517fec442f0500000000000000000000000000000000000000000000000000000000815260040161032c9190610a52565b60405180910390fd5b6103465f838361034a60201b60201c565b5050565b5f73ffffffffffffffffffffffffffffffffffffffff168373ffffffffffffffffffffffffffffffffffffffff160361039a578060025f82825461038e9190610c5e565b92505081905550610468565b5f5f5f8573ffffffffffffffffffffffffffffffffffffffff1673ffffffffffffffffffffffffffffffffffffffff1681526020019081526020015f2054905081811015610423578381836040517fe450d38c00000000000000000000000000000000000000000000000000000000815260040161041a93929190610ca0565b60405180910390fd5b8181035f5f8673ffffffffffffffffffffffffffffffffffffffff1673ffffffffffffffffffffffffffffffffffffffff1681526020019081526020015f2081905550505b5f73ffffffffffffffffffffffffffffffffffffffff168273ffffffffffffffffffffffffffffffffffffffff16036104af578060025f82825403925050819055506104f9565b805f5f8473ffffffffffffffffffffffffffffffffffffffff1673ffffffffffffffffffffffffffffffffffffffff1681526020019081526020015f205f82825401925050819055505b8173ffffffffffffffffffffffffffffffffffffffff168373ffffffffffffffffffffffffffffffffffffffff167fddf252ad1be2c89b69c2b068fc378daa952ba7f163c4a11628f55a4df523b3ef836040516105569190610cd5565b60405180910390a3505050565b5f604051905090565b5f5ffd5b5f5ffd5b5f819050919050565b61058681610574565b8114610590575f5ffd5b50565b5f815190506105a18161057d565b92915050565b5f5ffd5b5f5ffd5b5f601f19601f8301169050919050565b7f4e487b71000000000000000000000000000000000000000000000000000000005f52604160045260245ffd5b6105f5826105af565b810181811067ffffffffffffffff82111715610614576106136105bf565b5b80604052505050565b5f610626610563565b905061063282826105ec565b919050565b5f67ffffffffffffffff821115610651576106506105bf565b5b61065a826105af565b9050602081019050919050565b8281835e5f83830152505050565b5f61068761068284610637565b61061d565b9050828152602081018484840111156106a3576106a26105ab565b5b6106ae848285610667565b509392505050565b5f82601f8301126106ca576106c96105a7565b5b81516106da848260208601610675565b91505092915050565b5f5f604083850312156106f9576106f861056c565b5b5f61070685828601610593565b925050602083015167ffffffffffffffff81111561072757610726610570565b5b610733858286016106b6565b9150509250929050565b5f81519050919050565b7f4e487b71000000000000000000000000000000000000000000000000000000005f52602260045260245ffd5b5f600282049050600182168061078b57607f821691505b60208210810361079e5761079d610747565b5b50919050565b5f819050815f5260205f209050919050565b5f6020601f8301049050919050565b5f82821b905092915050565b5f600883026108007fffffffffffffffffffffffffffffffffffffffffffffffffffffffffffffffff826107c5565b61080a86836107c5565b95508019841693508086168417925050509392505050565b5f819050919050565b5f61084561084061083b84610574565b610822565b610574565b9050919050565b5f819050919050565b61085e8361082b565b61087261086a8261084c565b8484546107d1565b825550505050565b5f5f905090565b61088961087a565b610894818484610855565b505050565b5b818110156108b7576108ac5f82610881565b60018101905061089a565b5050565b601f8211156108fc576108cd816107a4565b6108d6846107b6565b810160208510156108e5578190505b6108f96108f1856107b6565b830182610899565b50505b505050565b5f82821c905092915050565b5f61091c5f1984600802610901565b1980831691505092915050565b5f610934838361090d565b9150826002028217905092915050565b61094d8261073d565b67ffffffffffffffff811115610966576109656105bf565b5b6109708254610774565b61097b8282856108bb565b5f60209050601f8311600181146109ac575f841561099a578287015190505b6109a48582610929565b865550610a0b565b601f1984166109ba866107a4565b5f5b828110156109e1578489015182556001820191506020850194506020810190506109bc565b868310156109fe57848901516109fa601f89168261090d565b8355505b6001600288020188555050505b505050505050565b5f73ffffffffffffffffffffffffffffffffffffffff82169050919050565b5f610a3c82610a13565b9050919050565b610a4c81610a32565b82525050565b5f602082019050610a655f830184610a43565b92915050565b7f4e487b71000000000000000000000000000000000000000000000000000000005f52601160045260245ffd5b5f8160011c9050919050565b5f5f8291508390505b6001851115610aed57808604811115610ac957610ac8610a6b565b5b6001851615610ad85780820291505b8081029050610ae685610a98565b9450610aad565b94509492505050565b5f82610b055760019050610bc0565b81610b12575f9050610bc0565b8160018114610b285760028114610b3257610b61565b6001915050610bc0565b60ff841115610b4457610b43610a6b565b5b8360020a915084821115610b5b57610b5a610a6b565b5b50610bc0565b5060208310610133831016604e8410600b8410161715610b965782820a905083811115610b9157610b90610a6b565b5b610bc0565b610ba38484846001610aa4565b92509050818404811115610bba57610bb9610a6b565b5b81810290505b9392505050565b5f60ff82169050919050565b5f610bdd82610574565b9150610be883610bc7565b9250610c157fffffffffffffffffffffffffffffffffffffffffffffffffffffffffffffffff8484610af6565b905092915050565b5f610c2782610574565b9150610c3283610574565b9250828202610c4081610574565b91508282048414831517610c5757610c56610a6b565b5b5092915050565b5f610c6882610574565b9150610c7383610574565b9250828201905080821115610c8b57610c8a610a6b565b5b92915050565b610c9a81610574565b82525050565b5f606082019050610cb35f830186610a43565b610cc06020830185610c91565b610ccd6040830184610c91565b949350505050565b5f602082019050610ce85f830184610c91565b92915050565b6112f180610cfb5f395ff3fe608060405234801561000f575f5ffd5b5060043610610109575f3560e01c80634c0f38c2116100a057806395d89b411161006f57806395d89b4114610295578063a9059cbb146102b3578063b03e7592146102e3578063dd62ed3e14610301578063f2fde38b1461033157610109565b80634c0f38c21461021f57806370a082311461023d578063715018a61461026d5780638da5cb5b1461027757610109565b806323b872dd116100dc57806323b872dd14610197578063313ce567146101c757806332cb6b0c146101e557806340c10f191461020357610109565b806306fdde031461010d578063095ea7b31461012b5780630ca1c5c91461015b57806318160ddd14610179575b5f5ffd5b61011561034d565b6040516101229190610f6a565b60405180910390f35b6101456004803603810190610140919061101b565b6103dd565b6040516101529190611073565b60405180910390f35b6101636103ff565b604051610170919061109b565b60405180910390f35b610181610408565b60405161018e919061109b565b60405180910390f35b6101b160048036038101906101ac91906110b4565b610411565b6040516101be9190611073565b60405180910390f35b6101cf61043f565b6040516101dc919061111f565b60405180910390f35b6101ed610447565b6040516101fa919061109b565b60405180910390f35b61021d6004803603810190610218919061101b565b610455565b005b6102276104d4565b604051610234919061109b565b60405180910390f35b61025760048036038101906102529190611138565b6104e5565b604051610264919061109b565b60405180910390f35b61027561052a565b005b61027f61053d565b60405161028c9190611172565b60405180910390f35b61029d610565565b6040516102aa9190610f6a565b60405180910390f35b6102cd60048036038101906102c8919061101b565b6105f5565b6040516102da9190611073565b60405180910390f35b6102eb610617565b6040516102f89190610f6a565b60405180910390f35b61031b6004803603810190610316919061118b565b6106a7565b604051610328919061109b565b60405180910390f35b61034b60048036038101906103469190611138565b610729565b005b60606003805461035c906111f6565b80601f0160208091040260200160405190810160405280929190818152602001828054610388906111f6565b80156103d35780601f106103aa576101008083540402835291602001916103d3565b820191905f5260205f20905b8154815290600101906020018083116103b657829003601f168201915b5050505050905090565b5f5f6103e76107ad565b90506103f48185856107b4565b600191505092915050565b5f600754905090565b5f600254905090565b5f5f61041b6107ad565b90506104288582856107c6565b610433858585610859565b60019150509392505050565b5f6012905090565b69010f0cf064dd5920000081565b61045d610949565b69010f0cf064dd59200000816007546104769190611253565b11156104ae576040517fc30436e900000000000000000000000000000000000000000000000000000000815260040160405180910390fd5b6104b882826109d0565b8060075f8282546104c99190611253565b925050819055505050565b5f69010f0cf064dd59200000905090565b5f5f5f8373ffffffffffffffffffffffffffffffffffffffff1673ffffffffffffffffffffffffffffffffffffffff1681526020019081526020015f20549050919050565b610532610949565b61053b5f610a4f565b565b5f60055f9054906101000a900473ffffffffffffffffffffffffffffffffffffffff16905090565b606060048054610574906111f6565b80601f01602080910402602001604051908101604052809291908181526020018280546105a0906111f6565b80156105eb5780601f106105c2576101008083540402835291602001916105eb565b820191905f5260205f20905b8154815290600101906020018083116105ce57829003601f168201915b5050505050905090565b5f5f6105ff6107ad565b905061060c818585610859565b600191505092915050565b606060068054610626906111f6565b80601f0160208091040260200160405190810160405280929190818152602001828054610652906111f6565b801561069d5780601f106106745761010080835404028352916020019161069d565b820191905f5260205f20905b81548152906001019060200180831161068057829003601f168201915b5050505050905090565b5f60015f8473ffffffffffffffffffffffffffffffffffffffff1673ffffffffffffffffffffffffffffffffffffffff1681526020019081526020015f205f8373ffffffffffffffffffffffffffffffffffffffff1673ffffffffffffffffffffffffffffffffffffffff1681526020019081526020015f2054905092915050565b610731610949565b5f73ffffffffffffffffffffffffffffffffffffffff168173ffffffffffffffffffffffffffffffffffffffff16036107a1575f6040517f1e4fbdf70000000000000000000000000000000000000000000000000000000081526004016107989190611172565b60405180910390fd5b6107aa81610a4f565b50565b5f33905090565b6107c18383836001610b12565b505050565b5f6107d184846106a7565b90507fffffffffffffffffffffffffffffffffffffffffffffffffffffffffffffffff8110156108535781811015610844578281836040517ffb8f41b200000000000000000000000000000000000000000000000000000000815260040161083b93929190611286565b60405180910390fd5b61085284848484035f610b12565b5b50505050565b5f73ffffffffffffffffffffffffffffffffffffffff168373ffffffffffffffffffffffffffffffffffffffff16036108c9575f6040517f96c6fd1e0000000000000000000000000000000000000000000000000000000081526004016108c09190611172565b60405180910390fd5b5f73ffffffffffffffffffffffffffffffffffffffff168273ffffffffffffffffffffffffffffffffffffffff1603610939575f6040517fec442f050000000000000000000000000000000000000000000000000000000081526004016109309190611172565b60405180910390fd5b610944838383610ce1565b505050565b6109516107ad565b73ffffffffffffffffffffffffffffffffffffffff1661096f61053d565b73ffffffffffffffffffffffffffffffffffffffff16146109ce576109926107ad565b6040517f118cdaa70000000000000000000000000000000000000000000000000000000081526004016109c59190611172565b60405180910390fd5b565b5f73ffffffffffffffffffffffffffffffffffffffff168273ffffffffffffffffffffffffffffffffffffffff1603610a40575f6040517fec442f05000000000000000000000000000000000000000000000000000000008152600401610a379190611172565b60405180910390fd5b610a4b5f8383610ce1565b5050565b5f60055f9054906101000a900473ffffffffffffffffffffffffffffffffffffffff1690508160055f6101000a81548173ffffffffffffffffffffffffffffffffffffffff021916908373ffffffffffffffffffffffffffffffffffffffff1602179055508173ffffffffffffffffffffffffffffffffffffffff168173ffffffffffffffffffffffffffffffffffffffff167f8be0079c531659141344cd1fd0a4f28419497f9722a3daafe3b4186f6b6457e060405160405180910390a35050565b5f73ffffffffffffffffffffffffffffffffffffffff168473ffffffffffffffffffffffffffffffffffffffff1603610b82575f6040517fe602df05000000000000000000000000000000000000000000000000000000008152600401610b799190611172565b60405180910390fd5b5f73ffffffffffffffffffffffffffffffffffffffff168373ffffffffffffffffffffffffffffffffffffffff1603610bf2575f6040517f94280d62000000000000000000000000000000000000000000000000000000008152600401610be99190611172565b60405180910390fd5b8160015f8673ffffffffffffffffffffffffffffffffffffffff1673ffffffffffffffffffffffffffffffffffffffff1681526020019081526020015f205f8573ffffffffffffffffffffffffffffffffffffffff1673ffffffffffffffffffffffffffffffffffffffff1681526020019081526020015f20819055508015610cdb578273ffffffffffffffffffffffffffffffffffffffff168473ffffffffffffffffffffffffffffffffffffffff167f8c5be1e5ebec7d5bd14f71427d1e84f3dd0314c0f7b2291e5b200ac8c7c3b92584604051610cd2919061109b565b60405180910390a35b50505050565b5f73ffffffffffffffffffffffffffffffffffffffff168373ffffffffffffffffffffffffffffffffffffffff1603610d31578060025f828254610d259190611253565b92505081905550610dff565b5f5f5f8573ffffffffffffffffffffffffffffffffffffffff1673ffffffffffffffffffffffffffffffffffffffff1681526020019081526020015f2054905081811015610dba578381836040517fe450d38c000000000000000000000000000000000000000000000000000000008152600401610db193929190611286565b60405180910390fd5b8181035f5f8673ffffffffffffffffffffffffffffffffffffffff1673ffffffffffffffffffffffffffffffffffffffff1681526020019081526020015f2081905550505b5f73ffffffffffffffffffffffffffffffffffffffff168273ffffffffffffffffffffffffffffffffffffffff1603610e46578060025f8282540392505081905550610e90565b805f5f8473ffffffffffffffffffffffffffffffffffffffff1673ffffffffffffffffffffffffffffffffffffffff1681526020019081526020015f205f82825401925050819055505b8173ffffffffffffffffffffffffffffffffffffffff168373ffffffffffffffffffffffffffffffffffffffff167fddf252ad1be2c89b69c2b068fc378daa952ba7f163c4a11628f55a4df523b3ef83604051610eed919061109b565b60405180910390a3505050565b5f81519050919050565b5f82825260208201905092915050565b8281835e5f83830152505050565b5f601f19601f8301169050919050565b5f610f3c82610efa565b610f468185610f04565b9350610f56818560208601610f14565b610f5f81610f22565b840191505092915050565b5f6020820190508181035f830152610f828184610f32565b905092915050565b5f5ffd5b5f73ffffffffffffffffffffffffffffffffffffffff82169050919050565b5f610fb782610f8e565b9050919050565b610fc781610fad565b8114610fd1575f5ffd5b50565b5f81359050610fe281610fbe565b92915050565b5f819050919050565b610ffa81610fe8565b8114611004575f5ffd5b50565b5f8135905061101581610ff1565b92915050565b5f5f6040838503121561103157611030610f8a565b5b5f61103e85828601610fd4565b925050602061104f85828601611007565b9150509250929050565b5f8115159050919050565b61106d81611059565b82525050565b5f6020820190506110865f830184611064565b92915050565b61109581610fe8565b82525050565b5f6020820190506110ae5f83018461108c565b92915050565b5f5f5f606084860312156110cb576110ca610f8a565b5b5f6110d886828701610fd4565b93505060206110e986828701610fd4565b92505060406110fa86828701611007565b9150509250925092565b5f60ff82169050919050565b61111981611104565b82525050565b5f6020820190506111325f830184611110565b92915050565b5f6020828403121561114d5761114c610f8a565b5b5f61115a84828501610fd4565b91505092915050565b61116c81610fad565b82525050565b5f6020820190506111855f830184611163565b92915050565b5f5f604083850312156111a1576111a0610f8a565b5b5f6111ae85828601610fd4565b92505060206111bf85828601610fd4565b9150509250929050565b7f4e487b71000000000000000000000000000000000000000000000000000000005f52602260045260245ffd5b5f600282049050600182168061120d57607f821691505b6020821081036112205761121f6111c9565b5b50919050565b7f4e487b71000000000000000000000000000000000000000000000000000000005f52601160045260245ffd5b5f61125d82610fe8565b915061126883610fe8565b92508282019050808211156112805761127f611226565b5b92915050565b5f6060820190506112995f830186611163565b6112a6602083018561108c565b6112b3604083018461108c565b94935050505056fea2646970667358221220904ec1b77ecf5231affe5fffa59fa062a2b70815b997eebfdeb2c254adb62e4864736f6c634300081c0033",
        "linkReferences": {}
    },
    "methodIdentifiers": {
        "MAX_SUPPLY()": "32cb6b0c",
        "allowance(address,address)": "dd62ed3e",
        "approve(address,uint256)": "095ea7b3",
        "balanceOf(address)": "70a08231",
        "decimals()": "313ce567",
        "getMaxSupply()": "4c0f38c2",
        "getMetadataUrl()": "b03e7592",
        "getTotalMinted()": "0ca1c5c9",
        "mint(address,uint256)": "40c10f19",
        "name()": "06fdde03",
        "owner()": "8da5cb5b",
        "renounceOwnership()": "715018a6",
        "symbol()": "95d89b41",
        "totalSupply()": "18160ddd",
        "transfer(address,uint256)": "a9059cbb",
        "transferFrom(address,address,uint256)": "23b872dd",
        "transferOwnership(address)": "f2fde38b"
    },
    "id": 21
}