{
  "abi": [
    {
      "type": "constructor",
      "inputs": [
        {
          "name": "metadataUrl",
          "type": "string",
          "internalType": "string"
        },
        {
          "name": "_mintFee",
          "type": "uint256",
          "internalType": "uint256"
        },
        {
          "name": "_feeRecipient",
          "type": "address",
          "internalType": "address"
        }
      ],
      "stateMutability": "nonpayable"
    },
    {
      "type": "function",
      "name": "MAX_SUPPLY",
      "inputs": [],
      "outputs": [
        {
          "name": "",
          "type": "uint256",
          "internalType": "uint256"
        }
      ],
      "stateMutability": "view"
    },
    {
      "type": "function",
      "name": "allowance",
      "inputs": [
        {
          "name": "owner",
          "type": "address",
          "internalType": "address"
        },
        {
          "name": "spender",
          "type": "address",
          "internalType": "address"
        }
      ],
      "outputs": [
        {
          "name": "",
          "type": "uint256",
          "internalType": "uint256"
        }
      ],
      "stateMutability": "view"
    },
    {
      "type": "function",
      "name": "approve",
      "inputs": [
        {
          "name": "spender",
          "type": "address",
          "internalType": "address"
        },
        {
          "name": "value",
          "type": "uint256",
          "internalType": "uint256"
        }
      ],
      "outputs": [
        {
          "name": "",
          "type": "bool",
          "internalType": "bool"
        }
      ],
      "stateMutability": "nonpayable"
    },
    {
      "type": "function",
      "name": "balanceOf",
      "inputs": [
        {
          "name": "account",
          "type": "address",
          "internalType": "address"
        }
      ],
      "outputs": [
        {
          "name": "",
          "type": "uint256",
          "internalType": "uint256"
        }
      ],
      "stateMutability": "view"
    },
    {
      "type": "function",
      "name": "decimals",
      "inputs": [],
      "outputs": [
        {
          "name": "",
          "type": "uint8",
          "internalType": "uint8"
        }
      ],
      "stateMutability": "view"
    },
    {
      "type": "function",
      "name": "feeRecipient",
      "inputs": [],
      "outputs": [
        {
          "name": "",
          "type": "address",
          "internalType": "address"
        }
      ],
      "stateMutability": "view"
    },
    {
      "type": "function",
      "name": "getMaxSupply",
      "inputs": [],
      "outputs": [
        {
          "name": "",
          "type": "uint256",
          "internalType": "uint256"
        }
      ],
      "stateMutability": "pure"
    },
    {
      "type": "function",
      "name": "getMetadataUrl",
      "inputs": [],
      "outputs": [
        {
          "name": "",
          "type": "string",
          "internalType": "string"
        }
      ],
      "stateMutability": "view"
    },
    {
      "type": "function",
      "name": "getTotalMinted",
      "inputs": [],
      "outputs": [
        {
          "name": "",
          "type": "uint256",
          "internalType": "uint256"
        }
      ],
      "stateMutability": "view"
    },
    {
      "type": "function",
      "name": "mint",
      "inputs": [
        {
          "name": "to",
          "type": "address",
          "internalType": "address"
        },
        {
          "name": "amount",
          "type": "uint256",
          "internalType": "uint256"
        }
      ],
      "outputs": [],
      "stateMutability": "payable"
    },
    {
      "type": "function",
      "name": "mintFee",
      "inputs": [],
      "outputs": [
        {
          "name": "",
          "type": "uint256",
          "internalType": "uint256"
        }
      ],
      "stateMutability": "view"
    },
    {
      "type": "function",
      "name": "name",
      "inputs": [],
      "outputs": [
        {
          "name": "",
          "type": "string",
          "internalType": "string"
        }
      ],
      "stateMutability": "view"
    },
    {
      "type": "function",
      "name": "owner",
      "inputs": [],
      "outputs": [
        {
          "name": "",
          "type": "address",
          "internalType": "address"
        }
      ],
      "stateMutability": "view"
    },
    {
      "type": "function",
      "name": "renounceOwnership",
      "inputs": [],
      "outputs": [],
      "stateMutability": "nonpayable"
    },
    {
      "type": "function",
      "name": "setFeeRecipient",
      "inputs": [
        {
          "name": "_feeRecipient",
          "type": "address",
          "internalType": "address"
        }
      ],
      "outputs": [],
      "stateMutability": "nonpayable"
    },
    {
      "type": "function",
      "name": "setMintFee",
      "inputs": [
        {
          "name": "_mintFee",
          "type": "uint256",
          "internalType": "uint256"
        }
      ],
      "outputs": [],
      "stateMutability": "nonpayable"
    },
    {
      "type": "function",
      "name": "symbol",
      "inputs": [],
      "outputs": [
        {
          "name": "",
          "type": "string",
          "internalType": "string"
        }
      ],
      "stateMutability": "view"
    },
    {
      "type": "function",
      "name": "totalSupply",
      "inputs": [],
      "outputs": [
        {
          "name": "",
          "type": "uint256",
          "internalType": "uint256"
        }
      ],
      "stateMutability": "view"
    },
    {
      "type": "function",
      "name": "transfer",
      "inputs": [
        {
          "name": "to",
          "type": "address",
          "internalType": "address"
        },
        {
          "name": "value",
          "type": "uint256",
          "internalType": "uint256"
        }
      ],
      "outputs": [
        {
          "name": "",
          "type": "bool",
          "internalType": "bool"
        }
      ],
      "stateMutability": "nonpayable"
    },
    {
      "type": "function",
      "name": "transferFrom",
      "inputs": [
        {
          "name": "from",
          "type": "address",
          "internalType": "address"
        },
        {
          "name": "to",
          "type": "address",
          "internalType": "address"
        },
        {
          "name": "value",
          "type": "uint256",
          "internalType": "uint256"
        }
      ],
      "outputs": [
        {
          "name": "",
          "type": "bool",
          "internalType": "bool"
        }
      ],
      "stateMutability": "nonpayable"
    },
    {
      "type": "function",
      "name": "transferOwnership",
      "inputs": [
        {
          "name": "newOwner",
          "type": "address",
          "internalType": "address"
        }
      ],
      "outputs": [],
      "stateMutability": "nonpayable"
    },
    {
      "type": "event",
      "name": "Approval",
      "inputs": [
        {
          "name": "owner",
          "type": "address",
          "indexed": true,
          "internalType": "address"
        },
        {
          "name": "spender",
          "type": "address",
          "indexed": true,
          "internalType": "address"
        },
        {
          "name": "value",
          "type": "uint256",
          "indexed": false,
          "internalType": "uint256"
        }
      ],
      "anonymous": false
    },
    {
      "type": "event",
      "name": "FeeRecipientUpdated",
      "inputs": [
        {
          "name": "newRecipient",
          "type": "address",
          "indexed": false,
          "internalType": "address"
        }
      ],
      "anonymous": false
    },
    {
      "type": "event",
      "name": "FeeTransferred",
      "inputs": [
        {
          "name": "recipient",
          "type": "address",
          "indexed": true,
          "internalType": "address"
        },
        {
          "name": "amount",
          "type": "uint256",
          "indexed": false,
          "internalType": "uint256"
        }
      ],
      "anonymous": false
    },
    {
      "type": "event",
      "name": "MintFeeUpdated",
      "inputs": [
        {
          "name": "newFee",
          "type": "uint256",
          "indexed": false,
          "internalType": "uint256"
        }
      ],
      "anonymous": false
    },
    {
      "type": "event",
      "name": "OwnershipTransferred",
      "inputs": [
        {
          "name": "previousOwner",
          "type": "address",
          "indexed": true,
          "internalType": "address"
        },
        {
          "name": "newOwner",
          "type": "address",
          "indexed": true,
          "internalType": "address"
        }
      ],
      "anonymous": false
    },
    {
      "type": "event",
      "name": "TokensMinted",
      "inputs": [
        {
          "name": "to",
          "type": "address",
          "indexed": true,
          "internalType": "address"
        },
        {
          "name": "amount",
          "type": "uint256",
          "indexed": false,
          "internalType": "uint256"
        }
      ],
      "anonymous": false
    },
    {
      "type": "event",
      "name": "Transfer",
      "inputs": [
        {
          "name": "from",
          "type": "address",
          "indexed": true,
          "internalType": "address"
        },
        {
          "name": "to",
          "type": "address",
          "indexed": true,
          "internalType": "address"
        },
        {
          "name": "value",
          "type": "uint256",
          "indexed": false,
          "internalType": "uint256"
        }
      ],
      "anonymous": false
    },
    {
      "type": "error",
      "name": "ERC20InsufficientAllowance",
      "inputs": [
        {
          "name": "spender",
          "type": "address",
          "internalType": "address"
        },
        {
          "name": "allowance",
          "type": "uint256",
          "internalType": "uint256"
        },
        {
          "name": "needed",
          "type": "uint256",
          "internalType": "uint256"
        }
      ]
    },
    {
      "type": "error",
      "name": "ERC20InsufficientBalance",
      "inputs": [
        {
          "name": "sender",
          "type": "address",
          "internalType": "address"
        },
        {
          "name": "balance",
          "type": "uint256",
          "internalType": "uint256"
        },
        {
          "name": "needed",
          "type": "uint256",
          "internalType": "uint256"
        }
      ]
    },
    {
      "type": "error",
      "name": "ERC20InvalidApprover",
      "inputs": [
        {
          "name": "approver",
          "type": "address",
          "internalType": "address"
        }
      ]
    },
    {
      "type": "error",
      "name": "ERC20InvalidReceiver",
      "inputs": [
        {
          "name": "receiver",
          "type": "address",
          "internalType": "address"
        }
      ]
    },
    {
      "type": "error",
      "name": "ERC20InvalidSender",
      "inputs": [
        {
          "name": "sender",
          "type": "address",
          "internalType": "address"
        }
      ]
    },
    {
      "type": "error",
      "name": "ERC20InvalidSpender",
      "inputs": [
        {
          "name": "spender",
          "type": "address",
          "internalType": "address"
        }
      ]
    },
    {
      "type": "error",
      "name": "ExactFeeRequired",
      "inputs": []
    },
    {
      "type": "error",
      "name": "ExceedsMaxSupply",
      "inputs": []
    },
    {
      "type": "error",
      "name": "InsufficientBalance",
      "inputs": []
    },
    {
      "type": "error",
      "name": "InvalidAmount",
      "inputs": []
    },
    {
      "type": "error",
      "name": "OwnableInvalidOwner",
      "inputs": [
        {
          "name": "owner",
          "type": "address",
          "internalType": "address"
        }
      ]
    },
    {
      "type": "error",
      "name": "OwnableUnauthorizedAccount",
      "inputs": [
        {
          "name": "account",
          "type": "address",
          "internalType": "address"
        }
      ]
    },
    {
      "type": "error",
      "name": "ReentrancyGuardReentrantCall",
      "inputs": []
    },
    {
      "type": "error",
      "name": "TransferFailed",
      "inputs": []
    }
  ],
  "bytecode": {
    "object": "0x608060405234801561000f575f5ffd5b506040516123ba3803806123ba833981810160405281019061003191906104b2565b336040518060400160405280600881526020017f476f20486f7273650000000000000000000000000000000000000000000000008152506040518060400160405280600481526020017f474f484f0000000000000000000000000000000000000000000000000000000081525081600390816100ad9190610725565b5080600490816100bd9190610725565b5050505f73ffffffffffffffffffffffffffffffffffffffff168173ffffffffffffffffffffffffffffffffffffffff1603610130575f6040517f1e4fbdf70000000000000000000000000000000000000000000000000000000081526004016101279190610803565b60405180910390fd5b61013f8161021560201b60201c565b5060016006819055505f73ffffffffffffffffffffffffffffffffffffffff168173ffffffffffffffffffffffffffffffffffffffff16036101b6576040517f08c379a00000000000000000000000000000000000000000000000000000000081526004016101ad90610876565b60405180910390fd5b82600790816101c59190610725565b508160098190555080600a5f6101000a81548173ffffffffffffffffffffffffffffffffffffffff021916908373ffffffffffffffffffffffffffffffffffffffff160217905550505050610894565b5f60055f9054906101000a900473ffffffffffffffffffffffffffffffffffffffff1690508160055f6101000a81548173ffffffffffffffffffffffffffffffffffffffff021916908373ffffffffffffffffffffffffffffffffffffffff1602179055508173ffffffffffffffffffffffffffffffffffffffff168173ffffffffffffffffffffffffffffffffffffffff167f8be0079c531659141344cd1fd0a4f28419497f9722a3daafe3b4186f6b6457e060405160405180910390a35050565b5f604051905090565b5f5ffd5b5f5ffd5b5f5ffd5b5f5ffd5b5f601f19601f8301169050919050565b7f4e487b71000000000000000000000000000000000000000000000000000000005f52604160045260245ffd5b610337826102f1565b810181811067ffffffffffffffff8211171561035657610355610301565b5b80604052505050565b5f6103686102d8565b9050610374828261032e565b919050565b5f67ffffffffffffffff82111561039357610392610301565b5b61039c826102f1565b9050602081019050919050565b8281835e5f83830152505050565b5f6103c96103c484610379565b61035f565b9050828152602081018484840111156103e5576103e46102ed565b5b6103f08482856103a9565b509392505050565b5f82601f83011261040c5761040b6102e9565b5b815161041c8482602086016103b7565b91505092915050565b5f819050919050565b61043781610425565b8114610441575f5ffd5b50565b5f815190506104528161042e565b92915050565b5f73ffffffffffffffffffffffffffffffffffffffff82169050919050565b5f61048182610458565b9050919050565b61049181610477565b811461049b575f5ffd5b50565b5f815190506104ac81610488565b92915050565b5f5f5f606084860312156104c9576104c86102e1565b5b5f84015167ffffffffffffffff8111156104e6576104e56102e5565b5b6104f2868287016103f8565b935050602061050386828701610444565b92505060406105148682870161049e565b9150509250925092565b5f81519050919050565b7f4e487b71000000000000000000000000000000000000000000000000000000005f52602260045260245ffd5b5f600282049050600182168061056c57607f821691505b60208210810361057f5761057e610528565b5b50919050565b5f819050815f5260205f209050919050565b5f6020601f8301049050919050565b5f82821b905092915050565b5f600883026105e17fffffffffffffffffffffffffffffffffffffffffffffffffffffffffffffffff826105a6565b6105eb86836105a6565b95508019841693508086168417925050509392505050565b5f819050919050565b5f61062661062161061c84610425565b610603565b610425565b9050919050565b5f819050919050565b61063f8361060c565b61065361064b8261062d565b8484546105b2565b825550505050565b5f5f905090565b61066a61065b565b610675818484610636565b505050565b5b818110156106985761068d5f82610662565b60018101905061067b565b5050565b601f8211156106dd576106ae81610585565b6106b784610597565b810160208510156106c6578190505b6106da6106d285610597565b83018261067a565b50505b505050565b5f82821c905092915050565b5f6106fd5f19846008026106e2565b1980831691505092915050565b5f61071583836106ee565b9150826002028217905092915050565b61072e8261051e565b67ffffffffffffffff81111561074757610746610301565b5b6107518254610555565b61075c82828561069c565b5f60209050601f83116001811461078d575f841561077b578287015190505b610785858261070a565b8655506107ec565b601f19841661079b86610585565b5f5b828110156107c25784890151825560018201915060208501945060208101905061079d565b868310156107df57848901516107db601f8916826106ee565b8355505b6001600288020188555050505b505050505050565b6107fd81610477565b82525050565b5f6020820190506108165f8301846107f4565b92915050565b5f82825260208201905092915050565b7f496e76616c69642066656520726563697069656e7400000000000000000000005f82015250565b5f61086060158361081c565b915061086b8261082c565b602082019050919050565b5f6020820190508181035f83015261088d81610854565b9050919050565b611b19806108a15f395ff3fe608060405260043610610129575f3560e01c80634c0f38c2116100aa578063a9059cbb1161006e578063a9059cbb146103b7578063b03e7592146103f3578063dd62ed3e1461041d578063e74b981b14610459578063eddd0d9c14610481578063f2fde38b146104a957610129565b80634c0f38c2146102e757806370a0823114610311578063715018a61461034d5780638da5cb5b1461036357806395d89b411461038d57610129565b806323b872dd116100f157806323b872dd14610211578063313ce5671461024d57806332cb6b0c1461027757806340c10f19146102a157806346904840146102bd57610129565b806306fdde031461012d578063095ea7b3146101575780630ca1c5c91461019357806313966db5146101bd57806318160ddd146101e7575b5f5ffd5b348015610138575f5ffd5b506101416104d1565b60405161014e9190611588565b60405180910390f35b348015610162575f5ffd5b5061017d60048036038101906101789190611639565b610561565b60405161018a9190611691565b60405180910390f35b34801561019e575f5ffd5b506101a7610583565b6040516101b491906116b9565b60405180910390f35b3480156101c8575f5ffd5b506101d161058c565b6040516101de91906116b9565b60405180910390f35b3480156101f2575f5ffd5b506101fb610592565b60405161020891906116b9565b60405180910390f35b34801561021c575f5ffd5b50610237600480360381019061023291906116d2565b61059b565b6040516102449190611691565b60405180910390f35b348015610258575f5ffd5b506102616105c9565b60405161026e919061173d565b60405180910390f35b348015610282575f5ffd5b5061028b6105d1565b60405161029891906116b9565b60405180910390f35b6102bb60048036038101906102b69190611639565b6105df565b005b3480156102c8575f5ffd5b506102d1610944565b6040516102de9190611765565b60405180910390f35b3480156102f2575f5ffd5b506102fb610969565b60405161030891906116b9565b60405180910390f35b34801561031c575f5ffd5b506103376004803603810190610332919061177e565b61097a565b60405161034491906116b9565b60405180910390f35b348015610358575f5ffd5b506103616109bf565b005b34801561036e575f5ffd5b506103776109d2565b6040516103849190611765565b60405180910390f35b348015610398575f5ffd5b506103a16109fa565b6040516103ae9190611588565b60405180910390f35b3480156103c2575f5ffd5b506103dd60048036038101906103d89190611639565b610a8a565b6040516103ea9190611691565b60405180910390f35b3480156103fe575f5ffd5b50610407610aac565b6040516104149190611588565b60405180910390f35b348015610428575f5ffd5b50610443600480360381019061043e91906117a9565b610b3c565b60405161045091906116b9565b60405180910390f35b348015610464575f5ffd5b5061047f600480360381019061047a919061177e565b610bbe565b005b34801561048c575f5ffd5b506104a760048036038101906104a291906117e7565b610cae565b005b3480156104b4575f5ffd5b506104cf60048036038101906104ca919061177e565b610cf7565b005b6060600380546104e09061183f565b80601f016020809104026020016040519081016040528092919081815260200182805461050c9061183f565b80156105575780601f1061052e57610100808354040283529160200191610557565b820191905f5260205f20905b81548152906001019060200180831161053a57829003601f168201915b5050505050905090565b5f5f61056b610d7b565b9050610578818585610d82565b600191505092915050565b5f600854905090565b60095481565b5f600254905090565b5f5f6105a5610d7b565b90506105b2858285610d94565b6105bd858585610e27565b60019150509392505050565b5f6012905090565b69021e19e0c9bab240000081565b6105e7610f17565b5f73ffffffffffffffffffffffffffffffffffffffff168273ffffffffffffffffffffffffffffffffffffffff1603610655576040517f08c379a000000000000000000000000000000000000000000000000000000000815260040161064c906118b9565b60405180910390fd5b5f670de0b6b3a76400008261066a9190611904565b146106a1576040517f2c5211c600000000000000000000000000000000000000000000000000000000815260040160405180910390fd5b69021e19e0c9bab2400000816008546106ba9190611961565b11156106f2576040517fc30436e900000000000000000000000000000000000000000000000000000000815260040160405180910390fd5b5f670de0b6b3a7640000826107079190611994565b90505f8160095461071891906119c4565b905080341015610754576040517ff4d678b800000000000000000000000000000000000000000000000000000000815260040160405180910390fd5b80341461078d576040517f629e9f8b00000000000000000000000000000000000000000000000000000000815260040160405180910390fd5b6107978484610f5d565b8260085f8282546107a89190611961565b925050819055505f3411156108e8575f600a5f9054906101000a900473ffffffffffffffffffffffffffffffffffffffff1673ffffffffffffffffffffffffffffffffffffffff16346040516107fd90611a32565b5f6040518083038185875af1925050503d805f8114610837576040519150601f19603f3d011682016040523d82523d5f602084013e61083c565b606091505b5050905080610877576040517f90b8ec1800000000000000000000000000000000000000000000000000000000815260040160405180910390fd5b600a5f9054906101000a900473ffffffffffffffffffffffffffffffffffffffff1673ffffffffffffffffffffffffffffffffffffffff167f34e8a84e537ed93d93ddf39a78816dcbc74df8397c635838b8cc973d4fa943f8346040516108de91906116b9565b60405180910390a2505b8373ffffffffffffffffffffffffffffffffffffffff167f3f2c9d57c068687834f0de942a9babb9e5acab57d516d3480a3c16ee165a42738460405161092e91906116b9565b60405180910390a25050610940610fdc565b5050565b600a5f9054906101000a900473ffffffffffffffffffffffffffffffffffffffff1681565b5f69021e19e0c9bab2400000905090565b5f5f5f8373ffffffffffffffffffffffffffffffffffffffff1673ffffffffffffffffffffffffffffffffffffffff1681526020019081526020015f20549050919050565b6109c7610fe6565b6109d05f61106d565b565b5f60055f9054906101000a900473ffffffffffffffffffffffffffffffffffffffff16905090565b606060048054610a099061183f565b80601f0160208091040260200160405190810160405280929190818152602001828054610a359061183f565b8015610a805780601f10610a5757610100808354040283529160200191610a80565b820191905f5260205f20905b815481529060010190602001808311610a6357829003601f168201915b5050505050905090565b5f5f610a94610d7b565b9050610aa1818585610e27565b600191505092915050565b606060078054610abb9061183f565b80601f0160208091040260200160405190810160405280929190818152602001828054610ae79061183f565b8015610b325780601f10610b0957610100808354040283529160200191610b32565b820191905f5260205f20905b815481529060010190602001808311610b1557829003601f168201915b5050505050905090565b5f60015f8473ffffffffffffffffffffffffffffffffffffffff1673ffffffffffffffffffffffffffffffffffffffff1681526020019081526020015f205f8373ffffffffffffffffffffffffffffffffffffffff1673ffffffffffffffffffffffffffffffffffffffff1681526020019081526020015f2054905092915050565b610bc6610fe6565b5f73ffffffffffffffffffffffffffffffffffffffff168173ffffffffffffffffffffffffffffffffffffffff1603610c34576040517f08c379a0000000000000000000000000000000000000000000000000000000008152600401610c2b90611a90565b60405180910390fd5b80600a5f6101000a81548173ffffffffffffffffffffffffffffffffffffffff021916908373ffffffffffffffffffffffffffffffffffffffff1602179055507f7a7b5a0a132f9e0581eb8527f66eae9ee89c2a3e79d4ac7e41a1f1f4d48a7fc281604051610ca39190611765565b60405180910390a150565b610cb6610fe6565b806009819055507f38fbb1c8b109c430f0c030e7ed076cf5611a307773a4e8e365601e8f8bceaec681604051610cec91906116b9565b60405180910390a150565b610cff610fe6565b5f73ffffffffffffffffffffffffffffffffffffffff168173ffffffffffffffffffffffffffffffffffffffff1603610d6f575f6040517f1e4fbdf7000000000000000000000000000000000000000000000000000000008152600401610d669190611765565b60405180910390fd5b610d788161106d565b50565b5f33905090565b610d8f8383836001611130565b505050565b5f610d9f8484610b3c565b90507fffffffffffffffffffffffffffffffffffffffffffffffffffffffffffffffff811015610e215781811015610e12578281836040517ffb8f41b2000000000000000000000000000000000000000000000000000000008152600401610e0993929190611aae565b60405180910390fd5b610e2084848484035f611130565b5b50505050565b5f73ffffffffffffffffffffffffffffffffffffffff168373ffffffffffffffffffffffffffffffffffffffff1603610e97575f6040517f96c6fd1e000000000000000000000000000000000000000000000000000000008152600401610e8e9190611765565b60405180910390fd5b5f73ffffffffffffffffffffffffffffffffffffffff168273ffffffffffffffffffffffffffffffffffffffff1603610f07575f6040517fec442f05000000000000000000000000000000000000000000000000000000008152600401610efe9190611765565b60405180910390fd5b610f128383836112ff565b505050565b600260065403610f53576040517f3ee5aeb500000000000000000000000000000000000000000000000000000000815260040160405180910390fd5b6002600681905550565b5f73ffffffffffffffffffffffffffffffffffffffff168273ffffffffffffffffffffffffffffffffffffffff1603610fcd575f6040517fec442f05000000000000000000000000000000000000000000000000000000008152600401610fc49190611765565b60405180910390fd5b610fd85f83836112ff565b5050565b6001600681905550565b610fee610d7b565b73ffffffffffffffffffffffffffffffffffffffff1661100c6109d2565b73ffffffffffffffffffffffffffffffffffffffff161461106b5761102f610d7b565b6040517f118cdaa70000000000000000000000000000000000000000000000000000000081526004016110629190611765565b60405180910390fd5b565b5f60055f9054906101000a900473ffffffffffffffffffffffffffffffffffffffff1690508160055f6101000a81548173ffffffffffffffffffffffffffffffffffffffff021916908373ffffffffffffffffffffffffffffffffffffffff1602179055508173ffffffffffffffffffffffffffffffffffffffff168173ffffffffffffffffffffffffffffffffffffffff167f8be0079c531659141344cd1fd0a4f28419497f9722a3daafe3b4186f6b6457e060405160405180910390a35050565b5f73ffffffffffffffffffffffffffffffffffffffff168473ffffffffffffffffffffffffffffffffffffffff16036111a0575f6040517fe602df050000000000000000000000000000000000000000000000000000000081526004016111979190611765565b60405180910390fd5b5f73ffffffffffffffffffffffffffffffffffffffff168373ffffffffffffffffffffffffffffffffffffffff1603611210575f6040517f94280d620000000000000000000000000000000000000000000000000000000081526004016112079190611765565b60405180910390fd5b8160015f8673ffffffffffffffffffffffffffffffffffffffff1673ffffffffffffffffffffffffffffffffffffffff1681526020019081526020015f205f8573ffffffffffffffffffffffffffffffffffffffff1673ffffffffffffffffffffffffffffffffffffffff1681526020019081526020015f208190555080156112f9578273ffffffffffffffffffffffffffffffffffffffff168473ffffffffffffffffffffffffffffffffffffffff167f8c5be1e5ebec7d5bd14f71427d1e84f3dd0314c0f7b2291e5b200ac8c7c3b925846040516112f091906116b9565b60405180910390a35b50505050565b5f73ffffffffffffffffffffffffffffffffffffffff168373ffffffffffffffffffffffffffffffffffffffff160361134f578060025f8282546113439190611961565b9250508190555061141d565b5f5f5f8573ffffffffffffffffffffffffffffffffffffffff1673ffffffffffffffffffffffffffffffffffffffff1681526020019081526020015f20549050818110156113d8578381836040517fe450d38c0000000000000000000000000000000000000000000000000000000081526004016113cf93929190611aae565b60405180910390fd5b8181035f5f8673ffffffffffffffffffffffffffffffffffffffff1673ffffffffffffffffffffffffffffffffffffffff1681526020019081526020015f2081905550505b5f73ffffffffffffffffffffffffffffffffffffffff168273ffffffffffffffffffffffffffffffffffffffff1603611464578060025f82825403925050819055506114ae565b805f5f8473ffffffffffffffffffffffffffffffffffffffff1673ffffffffffffffffffffffffffffffffffffffff1681526020019081526020015f205f82825401925050819055505b8173ffffffffffffffffffffffffffffffffffffffff168373ffffffffffffffffffffffffffffffffffffffff167fddf252ad1be2c89b69c2b068fc378daa952ba7f163c4a11628f55a4df523b3ef8360405161150b91906116b9565b60405180910390a3505050565b5f81519050919050565b5f82825260208201905092915050565b8281835e5f83830152505050565b5f601f19601f8301169050919050565b5f61155a82611518565b6115648185611522565b9350611574818560208601611532565b61157d81611540565b840191505092915050565b5f6020820190508181035f8301526115a08184611550565b905092915050565b5f5ffd5b5f73ffffffffffffffffffffffffffffffffffffffff82169050919050565b5f6115d5826115ac565b9050919050565b6115e5816115cb565b81146115ef575f5ffd5b50565b5f81359050611600816115dc565b92915050565b5f819050919050565b61161881611606565b8114611622575f5ffd5b50565b5f813590506116338161160f565b92915050565b5f5f6040838503121561164f5761164e6115a8565b5b5f61165c858286016115f2565b925050602061166d85828601611625565b9150509250929050565b5f8115159050919050565b61168b81611677565b82525050565b5f6020820190506116a45f830184611682565b92915050565b6116b381611606565b82525050565b5f6020820190506116cc5f8301846116aa565b92915050565b5f5f5f606084860312156116e9576116e86115a8565b5b5f6116f6868287016115f2565b9350506020611707868287016115f2565b925050604061171886828701611625565b9150509250925092565b5f60ff82169050919050565b61173781611722565b82525050565b5f6020820190506117505f83018461172e565b92915050565b61175f816115cb565b82525050565b5f6020820190506117785f830184611756565b92915050565b5f60208284031215611793576117926115a8565b5b5f6117a0848285016115f2565b91505092915050565b5f5f604083850312156117bf576117be6115a8565b5b5f6117cc858286016115f2565b92505060206117dd858286016115f2565b9150509250929050565b5f602082840312156117fc576117fb6115a8565b5b5f61180984828501611625565b91505092915050565b7f4e487b71000000000000000000000000000000000000000000000000000000005f52602260045260245ffd5b5f600282049050600182168061185657607f821691505b60208210810361186957611868611812565b5b50919050565b7f496e76616c696420726563697069656e740000000000000000000000000000005f82015250565b5f6118a3601183611522565b91506118ae8261186f565b602082019050919050565b5f6020820190508181035f8301526118d081611897565b9050919050565b7f4e487b71000000000000000000000000000000000000000000000000000000005f52601260045260245ffd5b5f61190e82611606565b915061191983611606565b925082611929576119286118d7565b5b828206905092915050565b7f4e487b71000000000000000000000000000000000000000000000000000000005f52601160045260245ffd5b5f61196b82611606565b915061197683611606565b925082820190508082111561198e5761198d611934565b5b92915050565b5f61199e82611606565b91506119a983611606565b9250826119b9576119b86118d7565b5b828204905092915050565b5f6119ce82611606565b91506119d983611606565b92508282026119e781611606565b915082820484148315176119fe576119fd611934565b5b5092915050565b5f81905092915050565b50565b5f611a1d5f83611a05565b9150611a2882611a0f565b5f82019050919050565b5f611a3c82611a12565b9150819050919050565b7f496e76616c6964206164647265737300000000000000000000000000000000005f82015250565b5f611a7a600f83611522565b9150611a8582611a46565b602082019050919050565b5f6020820190508181035f830152611aa781611a6e565b9050919050565b5f606082019050611ac15f830186611756565b611ace60208301856116aa565b611adb60408301846116aa565b94935050505056fea26469706673582212204f8efae17e77cdbee6706b57398f7c36c10169becef10acf6e17f9c88544db4a64736f6c634300081c0033",
    "linkReferences": {}
  },
  "methodIdentifiers": {
    "MAX_SUPPLY()": "32cb6b0c",
    "allowance(address,address)": "dd62ed3e",
    "approve(address,uint256)": "095ea7b3",
    "balanceOf(address)": "70a08231",
    "decimals()": "313ce567",
    "feeRecipient()": "46904840",
    "getMaxSupply()": "4c0f38c2",
    "getMetadataUrl()": "b03e7592",
    "getTotalMinted()": "0ca1c5c9",
    "mint(address,uint256)": "40c10f19",
    "mintFee()": "13966db5",
    "name()": "06fdde03",
    "owner()": "8da5cb5b",
    "renounceOwnership()": "715018a6",
    "setFeeRecipient(address)": "e74b981b",
    "setMintFee(uint256)": "eddd0d9c",
    "symbol()": "95d89b41",
    "totalSupply()": "18160ddd",
    "transfer(address,uint256)": "a9059cbb",
    "transferFrom(address,address,uint256)": "23b872dd",
    "transferOwnership(address)": "f2fde38b"
  },
  "id": 25
}