{
    "abi": [
        {
            "type": "constructor",
            "inputs": [
                {
                    "name": "metadataUrl",
                    "type": "string",
                    "internalType": "string"
                },
                {
                    "name": "_mintFee",
                    "type": "uint256",
                    "internalType": "uint256"
                },
                {
                    "name": "_feeRecipient",
                    "type": "address",
                    "internalType": "address"
                }
            ],
            "stateMutability": "nonpayable"
        },
        {
            "type": "function",
            "name": "MAX_SUPPLY",
            "inputs": [],
            "outputs": [
                {
                    "name": "",
                    "type": "uint256",
                    "internalType": "uint256"
                }
            ],
            "stateMutability": "view"
        },
        {
            "type": "function",
            "name": "allowance",
            "inputs": [
                {
                    "name": "owner",
                    "type": "address",
                    "internalType": "address"
                },
                {
                    "name": "spender",
                    "type": "address",
                    "internalType": "address"
                }
            ],
            "outputs": [
                {
                    "name": "",
                    "type": "uint256",
                    "internalType": "uint256"
                }
            ],
            "stateMutability": "view"
        },
        {
            "type": "function",
            "name": "approve",
            "inputs": [
                {
                    "name": "spender",
                    "type": "address",
                    "internalType": "address"
                },
                {
                    "name": "value",
                    "type": "uint256",
                    "internalType": "uint256"
                }
            ],
            "outputs": [
                {
                    "name": "",
                    "type": "bool",
                    "internalType": "bool"
                }
            ],
            "stateMutability": "nonpayable"
        },
        {
            "type": "function",
            "name": "balanceOf",
            "inputs": [
                {
                    "name": "account",
                    "type": "address",
                    "internalType": "address"
                }
            ],
            "outputs": [
                {
                    "name": "",
                    "type": "uint256",
                    "internalType": "uint256"
                }
            ],
            "stateMutability": "view"
        },
        {
            "type": "function",
            "name": "decimals",
            "inputs": [],
            "outputs": [
                {
                    "name": "",
                    "type": "uint8",
                    "internalType": "uint8"
                }
            ],
            "stateMutability": "view"
        },
        {
            "type": "function",
            "name": "feeRecipient",
            "inputs": [],
            "outputs": [
                {
                    "name": "",
                    "type": "address",
                    "internalType": "address"
                }
            ],
            "stateMutability": "view"
        },
        {
            "type": "function",
            "name": "getMaxSupply",
            "inputs": [],
            "outputs": [
                {
                    "name": "",
                    "type": "uint256",
                    "internalType": "uint256"
                }
            ],
            "stateMutability": "pure"
        },
        {
            "type": "function",
            "name": "getMetadataUrl",
            "inputs": [],
            "outputs": [
                {
                    "name": "",
                    "type": "string",
                    "internalType": "string"
                }
            ],
            "stateMutability": "view"
        },
        {
            "type": "function",
            "name": "getTotalMinted",
            "inputs": [],
            "outputs": [
                {
                    "name": "",
                    "type": "uint256",
                    "internalType": "uint256"
                }
            ],
            "stateMutability": "view"
        },
        {
            "type": "function",
            "name": "mint",
            "inputs": [
                {
                    "name": "to",
                    "type": "address",
                    "internalType": "address"
                },
                {
                    "name": "amount",
                    "type": "uint256",
                    "internalType": "uint256"
                }
            ],
            "outputs": [],
            "stateMutability": "payable"
        },
        {
            "type": "function",
            "name": "mintFee",
            "inputs": [],
            "outputs": [
                {
                    "name": "",
                    "type": "uint256",
                    "internalType": "uint256"
                }
            ],
            "stateMutability": "view"
        },
        {
            "type": "function",
            "name": "name",
            "inputs": [],
            "outputs": [
                {
                    "name": "",
                    "type": "string",
                    "internalType": "string"
                }
            ],
            "stateMutability": "view"
        },
        {
            "type": "function",
            "name": "owner",
            "inputs": [],
            "outputs": [
                {
                    "name": "",
                    "type": "address",
                    "internalType": "address"
                }
            ],
            "stateMutability": "view"
        },
        {
            "type": "function",
            "name": "renounceOwnership",
            "inputs": [],
            "outputs": [],
            "stateMutability": "nonpayable"
        },
        {
            "type": "function",
            "name": "setFeeRecipient",
            "inputs": [
                {
                    "name": "_feeRecipient",
                    "type": "address",
                    "internalType": "address"
                }
            ],
            "outputs": [],
            "stateMutability": "nonpayable"
        },
        {
            "type": "function",
            "name": "setMintFee",
            "inputs": [
                {
                    "name": "_mintFee",
                    "type": "uint256",
                    "internalType": "uint256"
                }
            ],
            "outputs": [],
            "stateMutability": "nonpayable"
        },
        {
            "type": "function",
            "name": "symbol",
            "inputs": [],
            "outputs": [
                {
                    "name": "",
                    "type": "string",
                    "internalType": "string"
                }
            ],
            "stateMutability": "view"
        },
        {
            "type": "function",
            "name": "totalSupply",
            "inputs": [],
            "outputs": [
                {
                    "name": "",
                    "type": "uint256",
                    "internalType": "uint256"
                }
            ],
            "stateMutability": "view"
        },
        {
            "type": "function",
            "name": "transfer",
            "inputs": [
                {
                    "name": "to",
                    "type": "address",
                    "internalType": "address"
                },
                {
                    "name": "value",
                    "type": "uint256",
                    "internalType": "uint256"
                }
            ],
            "outputs": [
                {
                    "name": "",
                    "type": "bool",
                    "internalType": "bool"
                }
            ],
            "stateMutability": "nonpayable"
        },
        {
            "type": "function",
            "name": "transferFrom",
            "inputs": [
                {
                    "name": "from",
                    "type": "address",
                    "internalType": "address"
                },
                {
                    "name": "to",
                    "type": "address",
                    "internalType": "address"
                },
                {
                    "name": "value",
                    "type": "uint256",
                    "internalType": "uint256"
                }
            ],
            "outputs": [
                {
                    "name": "",
                    "type": "bool",
                    "internalType": "bool"
                }
            ],
            "stateMutability": "nonpayable"
        },
        {
            "type": "function",
            "name": "transferOwnership",
            "inputs": [
                {
                    "name": "newOwner",
                    "type": "address",
                    "internalType": "address"
                }
            ],
            "outputs": [],
            "stateMutability": "nonpayable"
        },
        {
            "type": "event",
            "name": "Approval",
            "inputs": [
                {
                    "name": "owner",
                    "type": "address",
                    "indexed": true,
                    "internalType": "address"
                },
                {
                    "name": "spender",
                    "type": "address",
                    "indexed": true,
                    "internalType": "address"
                },
                {
                    "name": "value",
                    "type": "uint256",
                    "indexed": false,
                    "internalType": "uint256"
                }
            ],
            "anonymous": false
        },
        {
            "type": "event",
            "name": "OwnershipTransferred",
            "inputs": [
                {
                    "name": "previousOwner",
                    "type": "address",
                    "indexed": true,
                    "internalType": "address"
                },
                {
                    "name": "newOwner",
                    "type": "address",
                    "indexed": true,
                    "internalType": "address"
                }
            ],
            "anonymous": false
        },
        {
            "type": "event",
            "name": "Transfer",
            "inputs": [
                {
                    "name": "from",
                    "type": "address",
                    "indexed": true,
                    "internalType": "address"
                },
                {
                    "name": "to",
                    "type": "address",
                    "indexed": true,
                    "internalType": "address"
                },
                {
                    "name": "value",
                    "type": "uint256",
                    "indexed": false,
                    "internalType": "uint256"
                }
            ],
            "anonymous": false
        },
        {
            "type": "error",
            "name": "ERC20InsufficientAllowance",
            "inputs": [
                {
                    "name": "spender",
                    "type": "address",
                    "internalType": "address"
                },
                {
                    "name": "allowance",
                    "type": "uint256",
                    "internalType": "uint256"
                },
                {
                    "name": "needed",
                    "type": "uint256",
                    "internalType": "uint256"
                }
            ]
        },
        {
            "type": "error",
            "name": "ERC20InsufficientBalance",
            "inputs": [
                {
                    "name": "sender",
                    "type": "address",
                    "internalType": "address"
                },
                {
                    "name": "balance",
                    "type": "uint256",
                    "internalType": "uint256"
                },
                {
                    "name": "needed",
                    "type": "uint256",
                    "internalType": "uint256"
                }
            ]
        },
        {
            "type": "error",
            "name": "ERC20InvalidApprover",
            "inputs": [
                {
                    "name": "approver",
                    "type": "address",
                    "internalType": "address"
                }
            ]
        },
        {
            "type": "error",
            "name": "ERC20InvalidReceiver",
            "inputs": [
                {
                    "name": "receiver",
                    "type": "address",
                    "internalType": "address"
                }
            ]
        },
        {
            "type": "error",
            "name": "ERC20InvalidSender",
            "inputs": [
                {
                    "name": "sender",
                    "type": "address",
                    "internalType": "address"
                }
            ]
        },
        {
            "type": "error",
            "name": "ERC20InvalidSpender",
            "inputs": [
                {
                    "name": "spender",
                    "type": "address",
                    "internalType": "address"
                }
            ]
        },
        {
            "type": "error",
            "name": "ExceedsMaxSupply",
            "inputs": []
        },
        {
            "type": "error",
            "name": "OwnableInvalidOwner",
            "inputs": [
                {
                    "name": "owner",
                    "type": "address",
                    "internalType": "address"
                }
            ]
        },
        {
            "type": "error",
            "name": "OwnableUnauthorizedAccount",
            "inputs": [
                {
                    "name": "account",
                    "type": "address",
                    "internalType": "address"
                }
            ]
        }
    ],
    "bytecode": {
        "object": "0x608060405234801561000f575f5ffd5b50604051611fc5380380611fc583398181016040528101906100319190610443565b336040518060400160405280600881526020017f476f20486f7273650000000000000000000000000000000000000000000000008152506040518060400160405280600481526020017f474f484f0000000000000000000000000000000000000000000000000000000081525081600390816100ad91906106b6565b5080600490816100bd91906106b6565b5050505f73ffffffffffffffffffffffffffffffffffffffff168173ffffffffffffffffffffffffffffffffffffffff1603610130575f6040517f1e4fbdf70000000000000000000000000000000000000000000000000000000081526004016101279190610794565b60405180910390fd5b61013f816101a660201b60201c565b50826006908161014f91906106b6565b50816008819055508060095f6101000a81548173ffffffffffffffffffffffffffffffffffffffff021916908373ffffffffffffffffffffffffffffffffffffffff1602179055505f6007819055505050506107ad565b5f60055f9054906101000a900473ffffffffffffffffffffffffffffffffffffffff1690508160055f6101000a81548173ffffffffffffffffffffffffffffffffffffffff021916908373ffffffffffffffffffffffffffffffffffffffff1602179055508173ffffffffffffffffffffffffffffffffffffffff168173ffffffffffffffffffffffffffffffffffffffff167f8be0079c531659141344cd1fd0a4f28419497f9722a3daafe3b4186f6b6457e060405160405180910390a35050565b5f604051905090565b5f5ffd5b5f5ffd5b5f5ffd5b5f5ffd5b5f601f19601f8301169050919050565b7f4e487b71000000000000000000000000000000000000000000000000000000005f52604160045260245ffd5b6102c882610282565b810181811067ffffffffffffffff821117156102e7576102e6610292565b5b80604052505050565b5f6102f9610269565b905061030582826102bf565b919050565b5f67ffffffffffffffff82111561032457610323610292565b5b61032d82610282565b9050602081019050919050565b8281835e5f83830152505050565b5f61035a6103558461030a565b6102f0565b9050828152602081018484840111156103765761037561027e565b5b61038184828561033a565b509392505050565b5f82601f83011261039d5761039c61027a565b5b81516103ad848260208601610348565b91505092915050565b5f819050919050565b6103c8816103b6565b81146103d2575f5ffd5b50565b5f815190506103e3816103bf565b92915050565b5f73ffffffffffffffffffffffffffffffffffffffff82169050919050565b5f610412826103e9565b9050919050565b61042281610408565b811461042c575f5ffd5b50565b5f8151905061043d81610419565b92915050565b5f5f5f6060848603121561045a57610459610272565b5b5f84015167ffffffffffffffff81111561047757610476610276565b5b61048386828701610389565b9350506020610494868287016103d5565b92505060406104a58682870161042f565b9150509250925092565b5f81519050919050565b7f4e487b71000000000000000000000000000000000000000000000000000000005f52602260045260245ffd5b5f60028204905060018216806104fd57607f821691505b6020821081036105105761050f6104b9565b5b50919050565b5f819050815f5260205f209050919050565b5f6020601f8301049050919050565b5f82821b905092915050565b5f600883026105727fffffffffffffffffffffffffffffffffffffffffffffffffffffffffffffffff82610537565b61057c8683610537565b95508019841693508086168417925050509392505050565b5f819050919050565b5f6105b76105b26105ad846103b6565b610594565b6103b6565b9050919050565b5f819050919050565b6105d08361059d565b6105e46105dc826105be565b848454610543565b825550505050565b5f5f905090565b6105fb6105ec565b6106068184846105c7565b505050565b5b818110156106295761061e5f826105f3565b60018101905061060c565b5050565b601f82111561066e5761063f81610516565b61064884610528565b81016020851015610657578190505b61066b61066385610528565b83018261060b565b50505b505050565b5f82821c905092915050565b5f61068e5f1984600802610673565b1980831691505092915050565b5f6106a6838361067f565b9150826002028217905092915050565b6106bf826104af565b67ffffffffffffffff8111156106d8576106d7610292565b5b6106e282546104e6565b6106ed82828561062d565b5f60209050601f83116001811461071e575f841561070c578287015190505b610716858261069b565b86555061077d565b601f19841661072c86610516565b5f5b828110156107535784890151825560018201915060208501945060208101905061072e565b86831015610770578489015161076c601f89168261067f565b8355505b6001600288020188555050505b505050505050565b61078e81610408565b82525050565b5f6020820190506107a75f830184610785565b92915050565b61180b806107ba5f395ff3fe608060405260043610610129575f3560e01c80634c0f38c2116100aa578063a9059cbb1161006e578063a9059cbb146103b7578063b03e7592146103f3578063dd62ed3e1461041d578063e74b981b14610459578063eddd0d9c14610481578063f2fde38b146104a957610129565b80634c0f38c2146102e757806370a0823114610311578063715018a61461034d5780638da5cb5b1461036357806395d89b411461038d57610129565b806323b872dd116100f157806323b872dd14610211578063313ce5671461024d57806332cb6b0c1461027757806340c10f19146102a157806346904840146102bd57610129565b806306fdde031461012d578063095ea7b3146101575780630ca1c5c91461019357806313966db5146101bd57806318160ddd146101e7575b5f5ffd5b348015610138575f5ffd5b506101416104d1565b60405161014e9190611295565b60405180910390f35b348015610162575f5ffd5b5061017d60048036038101906101789190611346565b610561565b60405161018a919061139e565b60405180910390f35b34801561019e575f5ffd5b506101a7610583565b6040516101b491906113c6565b60405180910390f35b3480156101c8575f5ffd5b506101d161058c565b6040516101de91906113c6565b60405180910390f35b3480156101f2575f5ffd5b506101fb610592565b60405161020891906113c6565b60405180910390f35b34801561021c575f5ffd5b50610237600480360381019061023291906113df565b61059b565b604051610244919061139e565b60405180910390f35b348015610258575f5ffd5b506102616105c9565b60405161026e919061144a565b60405180910390f35b348015610282575f5ffd5b5061028b6105d1565b60405161029891906113c6565b60405180910390f35b6102bb60048036038101906102b69190611346565b6105df565b005b3480156102c8575f5ffd5b506102d161077d565b6040516102de9190611472565b60405180910390f35b3480156102f2575f5ffd5b506102fb6107a2565b60405161030891906113c6565b60405180910390f35b34801561031c575f5ffd5b506103376004803603810190610332919061148b565b6107b3565b60405161034491906113c6565b60405180910390f35b348015610358575f5ffd5b506103616107f8565b005b34801561036e575f5ffd5b5061037761080b565b6040516103849190611472565b60405180910390f35b348015610398575f5ffd5b506103a1610833565b6040516103ae9190611295565b60405180910390f35b3480156103c2575f5ffd5b506103dd60048036038101906103d89190611346565b6108c3565b6040516103ea919061139e565b60405180910390f35b3480156103fe575f5ffd5b506104076108e5565b6040516104149190611295565b60405180910390f35b348015610428575f5ffd5b50610443600480360381019061043e91906114b6565b610975565b60405161045091906113c6565b60405180910390f35b348015610464575f5ffd5b5061047f600480360381019061047a919061148b565b6109f7565b005b34801561048c575f5ffd5b506104a760048036038101906104a291906114f4565b610a42565b005b3480156104b4575f5ffd5b506104cf60048036038101906104ca919061148b565b610a54565b005b6060600380546104e09061154c565b80601f016020809104026020016040519081016040528092919081815260200182805461050c9061154c565b80156105575780601f1061052e57610100808354040283529160200191610557565b820191905f5260205f20905b81548152906001019060200180831161053a57829003601f168201915b5050505050905090565b5f5f61056b610ad8565b9050610578818585610adf565b600191505092915050565b5f600754905090565b60085481565b5f600254905090565b5f5f6105a5610ad8565b90506105b2858285610af1565b6105bd858585610b84565b60019150509392505050565b5f6012905090565b69021e19e0c9bab240000081565b69021e19e0c9bab2400000816007546105f891906115a9565b1115610630576040517fc30436e900000000000000000000000000000000000000000000000000000000815260040160405180910390fd5b5f670de0b6b3a7640000826106459190611609565b90505f670de0b6b3a76400008361065c9190611639565b1461069c576040517f08c379a0000000000000000000000000000000000000000000000000000000008152600401610693906116d9565b60405180910390fd5b5f816008546106ab91906116f7565b9050803410156106f0576040517f08c379a00000000000000000000000000000000000000000000000000000000081526004016106e790611782565b60405180910390fd5b6106fa8484610c74565b8260075f82825461070b91906115a9565b9250508190555060095f9054906101000a900473ffffffffffffffffffffffffffffffffffffffff1673ffffffffffffffffffffffffffffffffffffffff166108fc3490811502906040515f60405180830381858888f19350505050158015610776573d5f5f3e3d5ffd5b5050505050565b60095f9054906101000a900473ffffffffffffffffffffffffffffffffffffffff1681565b5f69021e19e0c9bab2400000905090565b5f5f5f8373ffffffffffffffffffffffffffffffffffffffff1673ffffffffffffffffffffffffffffffffffffffff1681526020019081526020015f20549050919050565b610800610cf3565b6108095f610d7a565b565b5f60055f9054906101000a900473ffffffffffffffffffffffffffffffffffffffff16905090565b6060600480546108429061154c565b80601f016020809104026020016040519081016040528092919081815260200182805461086e9061154c565b80156108b95780601f10610890576101008083540402835291602001916108b9565b820191905f5260205f20905b81548152906001019060200180831161089c57829003601f168201915b5050505050905090565b5f5f6108cd610ad8565b90506108da818585610b84565b600191505092915050565b6060600680546108f49061154c565b80601f01602080910402602001604051908101604052809291908181526020018280546109209061154c565b801561096b5780601f106109425761010080835404028352916020019161096b565b820191905f5260205f20905b81548152906001019060200180831161094e57829003601f168201915b5050505050905090565b5f60015f8473ffffffffffffffffffffffffffffffffffffffff1673ffffffffffffffffffffffffffffffffffffffff1681526020019081526020015f205f8373ffffffffffffffffffffffffffffffffffffffff1673ffffffffffffffffffffffffffffffffffffffff1681526020019081526020015f2054905092915050565b6109ff610cf3565b8060095f6101000a81548173ffffffffffffffffffffffffffffffffffffffff021916908373ffffffffffffffffffffffffffffffffffffffff16021790555050565b610a4a610cf3565b8060088190555050565b610a5c610cf3565b5f73ffffffffffffffffffffffffffffffffffffffff168173ffffffffffffffffffffffffffffffffffffffff1603610acc575f6040517f1e4fbdf7000000000000000000000000000000000000000000000000000000008152600401610ac39190611472565b60405180910390fd5b610ad581610d7a565b50565b5f33905090565b610aec8383836001610e3d565b505050565b5f610afc8484610975565b90507fffffffffffffffffffffffffffffffffffffffffffffffffffffffffffffffff811015610b7e5781811015610b6f578281836040517ffb8f41b2000000000000000000000000000000000000000000000000000000008152600401610b66939291906117a0565b60405180910390fd5b610b7d84848484035f610e3d565b5b50505050565b5f73ffffffffffffffffffffffffffffffffffffffff168373ffffffffffffffffffffffffffffffffffffffff1603610bf4575f6040517f96c6fd1e000000000000000000000000000000000000000000000000000000008152600401610beb9190611472565b60405180910390fd5b5f73ffffffffffffffffffffffffffffffffffffffff168273ffffffffffffffffffffffffffffffffffffffff1603610c64575f6040517fec442f05000000000000000000000000000000000000000000000000000000008152600401610c5b9190611472565b60405180910390fd5b610c6f83838361100c565b505050565b5f73ffffffffffffffffffffffffffffffffffffffff168273ffffffffffffffffffffffffffffffffffffffff1603610ce4575f6040517fec442f05000000000000000000000000000000000000000000000000000000008152600401610cdb9190611472565b60405180910390fd5b610cef5f838361100c565b5050565b610cfb610ad8565b73ffffffffffffffffffffffffffffffffffffffff16610d1961080b565b73ffffffffffffffffffffffffffffffffffffffff1614610d7857610d3c610ad8565b6040517f118cdaa7000000000000000000000000000000000000000000000000000000008152600401610d6f9190611472565b60405180910390fd5b565b5f60055f9054906101000a900473ffffffffffffffffffffffffffffffffffffffff1690508160055f6101000a81548173ffffffffffffffffffffffffffffffffffffffff021916908373ffffffffffffffffffffffffffffffffffffffff1602179055508173ffffffffffffffffffffffffffffffffffffffff168173ffffffffffffffffffffffffffffffffffffffff167f8be0079c531659141344cd1fd0a4f28419497f9722a3daafe3b4186f6b6457e060405160405180910390a35050565b5f73ffffffffffffffffffffffffffffffffffffffff168473ffffffffffffffffffffffffffffffffffffffff1603610ead575f6040517fe602df05000000000000000000000000000000000000000000000000000000008152600401610ea49190611472565b60405180910390fd5b5f73ffffffffffffffffffffffffffffffffffffffff168373ffffffffffffffffffffffffffffffffffffffff1603610f1d575f6040517f94280d62000000000000000000000000000000000000000000000000000000008152600401610f149190611472565b60405180910390fd5b8160015f8673ffffffffffffffffffffffffffffffffffffffff1673ffffffffffffffffffffffffffffffffffffffff1681526020019081526020015f205f8573ffffffffffffffffffffffffffffffffffffffff1673ffffffffffffffffffffffffffffffffffffffff1681526020019081526020015f20819055508015611006578273ffffffffffffffffffffffffffffffffffffffff168473ffffffffffffffffffffffffffffffffffffffff167f8c5be1e5ebec7d5bd14f71427d1e84f3dd0314c0f7b2291e5b200ac8c7c3b92584604051610ffd91906113c6565b60405180910390a35b50505050565b5f73ffffffffffffffffffffffffffffffffffffffff168373ffffffffffffffffffffffffffffffffffffffff160361105c578060025f82825461105091906115a9565b9250508190555061112a565b5f5f5f8573ffffffffffffffffffffffffffffffffffffffff1673ffffffffffffffffffffffffffffffffffffffff1681526020019081526020015f20549050818110156110e5578381836040517fe450d38c0000000000000000000000000000000000000000000000000000000081526004016110dc939291906117a0565b60405180910390fd5b8181035f5f8673ffffffffffffffffffffffffffffffffffffffff1673ffffffffffffffffffffffffffffffffffffffff1681526020019081526020015f2081905550505b5f73ffffffffffffffffffffffffffffffffffffffff168273ffffffffffffffffffffffffffffffffffffffff1603611171578060025f82825403925050819055506111bb565b805f5f8473ffffffffffffffffffffffffffffffffffffffff1673ffffffffffffffffffffffffffffffffffffffff1681526020019081526020015f205f82825401925050819055505b8173ffffffffffffffffffffffffffffffffffffffff168373ffffffffffffffffffffffffffffffffffffffff167fddf252ad1be2c89b69c2b068fc378daa952ba7f163c4a11628f55a4df523b3ef8360405161121891906113c6565b60405180910390a3505050565b5f81519050919050565b5f82825260208201905092915050565b8281835e5f83830152505050565b5f601f19601f8301169050919050565b5f61126782611225565b611271818561122f565b935061128181856020860161123f565b61128a8161124d565b840191505092915050565b5f6020820190508181035f8301526112ad818461125d565b905092915050565b5f5ffd5b5f73ffffffffffffffffffffffffffffffffffffffff82169050919050565b5f6112e2826112b9565b9050919050565b6112f2816112d8565b81146112fc575f5ffd5b50565b5f8135905061130d816112e9565b92915050565b5f819050919050565b61132581611313565b811461132f575f5ffd5b50565b5f813590506113408161131c565b92915050565b5f5f6040838503121561135c5761135b6112b5565b5b5f611369858286016112ff565b925050602061137a85828601611332565b9150509250929050565b5f8115159050919050565b61139881611384565b82525050565b5f6020820190506113b15f83018461138f565b92915050565b6113c081611313565b82525050565b5f6020820190506113d95f8301846113b7565b92915050565b5f5f5f606084860312156113f6576113f56112b5565b5b5f611403868287016112ff565b9350506020611414868287016112ff565b925050604061142586828701611332565b9150509250925092565b5f60ff82169050919050565b6114448161142f565b82525050565b5f60208201905061145d5f83018461143b565b92915050565b61146c816112d8565b82525050565b5f6020820190506114855f830184611463565b92915050565b5f602082840312156114a05761149f6112b5565b5b5f6114ad848285016112ff565b91505092915050565b5f5f604083850312156114cc576114cb6112b5565b5b5f6114d9858286016112ff565b92505060206114ea858286016112ff565b9150509250929050565b5f60208284031215611509576115086112b5565b5b5f61151684828501611332565b91505092915050565b7f4e487b71000000000000000000000000000000000000000000000000000000005f52602260045260245ffd5b5f600282049050600182168061156357607f821691505b6020821081036115765761157561151f565b5b50919050565b7f4e487b71000000000000000000000000000000000000000000000000000000005f52601160045260245ffd5b5f6115b382611313565b91506115be83611313565b92508282019050808211156115d6576115d561157c565b5b92915050565b7f4e487b71000000000000000000000000000000000000000000000000000000005f52601260045260245ffd5b5f61161382611313565b915061161e83611313565b92508261162e5761162d6115dc565b5b828204905092915050565b5f61164382611313565b915061164e83611313565b92508261165e5761165d6115dc565b5b828206905092915050565b7f41206d696e746167656d20646576652073657220756d206e756d65726f20696e5f8201527f746569726f000000000000000000000000000000000000000000000000000000602082015250565b5f6116c360258361122f565b91506116ce82611669565b604082019050919050565b5f6020820190508181035f8301526116f0816116b7565b9050919050565b5f61170182611313565b915061170c83611313565b925082820261171a81611313565b915082820484148315176117315761173061157c565b5b5092915050565b7f53616c646f20496e737566696369656e746500000000000000000000000000005f82015250565b5f61176c60128361122f565b915061177782611738565b602082019050919050565b5f6020820190508181035f83015261179981611760565b9050919050565b5f6060820190506117b35f830186611463565b6117c060208301856113b7565b6117cd60408301846113b7565b94935050505056fea2646970667358221220d767089bcc60e9d6a5ad41de414b9ffa8ff31ebde10fd157a43b2a9e74fffb5364736f6c634300081c0033",
        "linkReferences": {}
    },
    "methodIdentifiers": {
        "MAX_SUPPLY()": "32cb6b0c",
        "allowance(address,address)": "dd62ed3e",
        "approve(address,uint256)": "095ea7b3",
        "balanceOf(address)": "70a08231",
        "decimals()": "313ce567",
        "feeRecipient()": "46904840",
        "getMaxSupply()": "4c0f38c2",
        "getMetadataUrl()": "b03e7592",
        "getTotalMinted()": "0ca1c5c9",
        "mint(address,uint256)": "40c10f19",
        "mintFee()": "13966db5",
        "name()": "06fdde03",
        "owner()": "8da5cb5b",
        "renounceOwnership()": "715018a6",
        "setFeeRecipient(address)": "e74b981b",
        "setMintFee(uint256)": "eddd0d9c",
        "symbol()": "95d89b41",
        "totalSupply()": "18160ddd",
        "transfer(address,uint256)": "a9059cbb",
        "transferFrom(address,address,uint256)": "23b872dd",
        "transferOwnership(address)": "f2fde38b"
    },
    "id": 26
}