{
    "abi": [
        {
            "type": "constructor",
            "inputs": [
                {
                    "name": "_tokenAddress",
                    "type": "address",
                    "internalType": "address"
                }
            ],
            "stateMutability": "nonpayable"
        },
        {
            "type": "receive",
            "stateMutability": "payable"
        },
        {
            "type": "function",
            "name": "claimFreeToken",
            "inputs": [],
            "outputs": [],
            "stateMutability": "nonpayable"
        },
        {
            "type": "function",
            "name": "getMintingFee",
            "inputs": [
                {
                    "name": "amount",
                    "type": "uint256",
                    "internalType": "uint256"
                }
            ],
            "outputs": [
                {
                    "name": "",
                    "type": "uint256",
                    "internalType": "uint256"
                }
            ],
            "stateMutability": "pure"
        },
        {
            "type": "function",
            "name": "getTokenAddress",
            "inputs": [],
            "outputs": [
                {
                    "name": "",
                    "type": "address",
                    "internalType": "address"
                }
            ],
            "stateMutability": "view"
        },
        {
            "type": "function",
            "name": "mintTokens",
            "inputs": [
                {
                    "name": "amount",
                    "type": "uint256",
                    "internalType": "uint256"
                }
            ],
            "outputs": [],
            "stateMutability": "payable"
        },
        {
            "type": "function",
            "name": "withdraw",
            "inputs": [],
            "outputs": [],
            "stateMutability": "nonpayable"
        },
        {
            "type": "event",
            "name": "TokensClaimed",
            "inputs": [
                {
                    "name": "user",
                    "type": "address",
                    "indexed": true,
                    "internalType": "address"
                },
                {
                    "name": "amount",
                    "type": "uint256",
                    "indexed": false,
                    "internalType": "uint256"
                },
                {
                    "name": "wasFree",
                    "type": "bool",
                    "indexed": false,
                    "internalType": "bool"
                }
            ],
            "anonymous": false
        },
        {
            "type": "error",
            "name": "FreeTokensExhausted",
            "inputs": []
        },
        {
            "type": "error",
            "name": "InvalidMintAmount",
            "inputs": []
        },
        {
            "type": "error",
            "name": "MintingFeeRequired",
            "inputs": []
        },
        {
            "type": "error",
            "name": "WalletAlreadyClaimed",
            "inputs": []
        }
    ],
    "bytecode": {
        "object": "0x60806040525f600255348015610013575f5ffd5b506040516109f93803806109f983398181016040528101906100359190610118565b805f5f6101000a81548173ffffffffffffffffffffffffffffffffffffffff021916908373ffffffffffffffffffffffffffffffffffffffff1602179055503360015f6101000a81548173ffffffffffffffffffffffffffffffffffffffff021916908373ffffffffffffffffffffffffffffffffffffffff16021790555050610143565b5f5ffd5b5f73ffffffffffffffffffffffffffffffffffffffff82169050919050565b5f6100e7826100be565b9050919050565b6100f7816100dd565b8114610101575f5ffd5b50565b5f81519050610112816100ee565b92915050565b5f6020828403121561012d5761012c6100ba565b5b5f61013a84828501610104565b91505092915050565b6108a9806101505f395ff3fe60806040526004361061004d575f3560e01c806310fe9ae8146100585780633ccfd60b146100825780636acca64b1461009857806397304ced146100d4578063adcea55a146100f057610054565b3661005457005b5f5ffd5b348015610063575f5ffd5b5061006c610106565b60405161007991906105f9565b60405180910390f35b34801561008d575f5ffd5b5061009661012d565b005b3480156100a3575f5ffd5b506100be60048036038101906100b99190610649565b610223565b6040516100cb9190610683565b60405180910390f35b6100ee60048036038101906100e99190610649565b610238565b005b3480156100fb575f5ffd5b506101046103a6565b005b5f5f5f9054906101000a900473ffffffffffffffffffffffffffffffffffffffff16905090565b60015f9054906101000a900473ffffffffffffffffffffffffffffffffffffffff1673ffffffffffffffffffffffffffffffffffffffff163373ffffffffffffffffffffffffffffffffffffffff16146101bc576040517f08c379a00000000000000000000000000000000000000000000000000000000081526004016101b39061071c565b60405180910390fd5b60015f9054906101000a900473ffffffffffffffffffffffffffffffffffffffff1673ffffffffffffffffffffffffffffffffffffffff166108fc4790811502906040515f60405180830381858888f19350505050158015610220573d5f5f3e3d5ffd5b50565b5f600a826102319190610794565b9050919050565b5f81148061024d5750678ac7230489e8000081115b15610284576040517fccfad01800000000000000000000000000000000000000000000000000000000815260040160405180910390fd5b5f61028e82610223565b9050803410156102ca576040517f7f7d949300000000000000000000000000000000000000000000000000000000815260040160405180910390fd5b5f5f9054906101000a900473ffffffffffffffffffffffffffffffffffffffff1673ffffffffffffffffffffffffffffffffffffffff166340c10f1933846040518363ffffffff1660e01b81526004016103259291906107c4565b5f604051808303815f87803b15801561033c575f5ffd5b505af115801561034e573d5f5f3e3d5ffd5b505050503373ffffffffffffffffffffffffffffffffffffffff167f576e296479bd83cbd61e522b2473d0106dd7706be78a924a70b954fa6dce94c0835f60405161039a929190610805565b60405180910390a25050565b60035f3373ffffffffffffffffffffffffffffffffffffffff1673ffffffffffffffffffffffffffffffffffffffff1681526020019081526020015f205f9054906101000a900460ff1615610427576040517f2fad2c3c00000000000000000000000000000000000000000000000000000000815260040160405180910390fd5b600a60025410610463576040517fc1d8741e00000000000000000000000000000000000000000000000000000000815260040160405180910390fd5b600160035f3373ffffffffffffffffffffffffffffffffffffffff1673ffffffffffffffffffffffffffffffffffffffff1681526020019081526020015f205f6101000a81548160ff02191690831515021790555060025f8154809291906104ca9061082c565b91905055505f5f9054906101000a900473ffffffffffffffffffffffffffffffffffffffff1673ffffffffffffffffffffffffffffffffffffffff166340c10f1933670de0b6b3a76400006040518363ffffffff1660e01b81526004016105329291906107c4565b5f604051808303815f87803b158015610549575f5ffd5b505af115801561055b573d5f5f3e3d5ffd5b505050503373ffffffffffffffffffffffffffffffffffffffff167f576e296479bd83cbd61e522b2473d0106dd7706be78a924a70b954fa6dce94c0670de0b6b3a764000060016040516105b0929190610805565b60405180910390a2565b5f73ffffffffffffffffffffffffffffffffffffffff82169050919050565b5f6105e3826105ba565b9050919050565b6105f3816105d9565b82525050565b5f60208201905061060c5f8301846105ea565b92915050565b5f5ffd5b5f819050919050565b61062881610616565b8114610632575f5ffd5b50565b5f813590506106438161061f565b92915050565b5f6020828403121561065e5761065d610612565b5b5f61066b84828501610635565b91505092915050565b61067d81610616565b82525050565b5f6020820190506106965f830184610674565b92915050565b5f82825260208201905092915050565b7f4f6e6c79206f776e65722063616e2063616c6c20746869732066756e6374696f5f8201527f6e00000000000000000000000000000000000000000000000000000000000000602082015250565b5f61070660218361069c565b9150610711826106ac565b604082019050919050565b5f6020820190508181035f830152610733816106fa565b9050919050565b7f4e487b71000000000000000000000000000000000000000000000000000000005f52601260045260245ffd5b7f4e487b71000000000000000000000000000000000000000000000000000000005f52601160045260245ffd5b5f61079e82610616565b91506107a983610616565b9250826107b9576107b861073a565b5b828204905092915050565b5f6040820190506107d75f8301856105ea565b6107e46020830184610674565b9392505050565b5f8115159050919050565b6107ff816107eb565b82525050565b5f6040820190506108185f830185610674565b61082560208301846107f6565b9392505050565b5f61083682610616565b91507fffffffffffffffffffffffffffffffffffffffffffffffffffffffffffffffff820361086857610867610767565b5b60018201905091905056fea26469706673582212202443b5c3bd78db47869b4bfaf207fd229c56547bbcc3c8b2c6914d55dc841fdd64736f6c634300081c0033",
        "linkReferences": {}
    },
    "methodIdentifiers": {
        "claimFreeToken()": "adcea55a",
        "getMintingFee(uint256)": "6acca64b",
        "getTokenAddress()": "10fe9ae8",
        "mintTokens(uint256)": "97304ced",
        "withdraw()": "3ccfd60b"
    },
    "id": 20
}