{
    "abi": [
        {
            "type": "constructor",
            "inputs": [
                {
                    "name": "initialSupply",
                    "type": "uint256",
                    "internalType": "uint256"
                },
                {
                    "name": "metadataUrl",
                    "type": "string",
                    "internalType": "string"
                }
            ],
            "stateMutability": "nonpayable"
        },
        {
            "type": "function",
            "name": "MAX_SUPPLY",
            "inputs": [],
            "outputs": [
                {
                    "name": "",
                    "type": "uint256",
                    "internalType": "uint256"
                }
            ],
            "stateMutability": "view"
        },
        {
            "type": "function",
            "name": "allowance",
            "inputs": [
                {
                    "name": "owner",
                    "type": "address",
                    "internalType": "address"
                },
                {
                    "name": "spender",
                    "type": "address",
                    "internalType": "address"
                }
            ],
            "outputs": [
                {
                    "name": "",
                    "type": "uint256",
                    "internalType": "uint256"
                }
            ],
            "stateMutability": "view"
        },
        {
            "type": "function",
            "name": "approve",
            "inputs": [
                {
                    "name": "spender",
                    "type": "address",
                    "internalType": "address"
                },
                {
                    "name": "value",
                    "type": "uint256",
                    "internalType": "uint256"
                }
            ],
            "outputs": [
                {
                    "name": "",
                    "type": "bool",
                    "internalType": "bool"
                }
            ],
            "stateMutability": "nonpayable"
        },
        {
            "type": "function",
            "name": "balanceOf",
            "inputs": [
                {
                    "name": "account",
                    "type": "address",
                    "internalType": "address"
                }
            ],
            "outputs": [
                {
                    "name": "",
                    "type": "uint256",
                    "internalType": "uint256"
                }
            ],
            "stateMutability": "view"
        },
        {
            "type": "function",
            "name": "decimals",
            "inputs": [],
            "outputs": [
                {
                    "name": "",
                    "type": "uint8",
                    "internalType": "uint8"
                }
            ],
            "stateMutability": "view"
        },
        {
            "type": "function",
            "name": "getMetadataUrl",
            "inputs": [],
            "outputs": [
                {
                    "name": "",
                    "type": "string",
                    "internalType": "string"
                }
            ],
            "stateMutability": "view"
        },
        {
            "type": "function",
            "name": "mint",
            "inputs": [
                {
                    "name": "to",
                    "type": "address",
                    "internalType": "address"
                },
                {
                    "name": "amount",
                    "type": "uint256",
                    "internalType": "uint256"
                }
            ],
            "outputs": [],
            "stateMutability": "nonpayable"
        },
        {
            "type": "function",
            "name": "name",
            "inputs": [],
            "outputs": [
                {
                    "name": "",
                    "type": "string",
                    "internalType": "string"
                }
            ],
            "stateMutability": "view"
        },
        {
            "type": "function",
            "name": "owner",
            "inputs": [],
            "outputs": [
                {
                    "name": "",
                    "type": "address",
                    "internalType": "address"
                }
            ],
            "stateMutability": "view"
        },
        {
            "type": "function",
            "name": "setMinter",
            "inputs": [
                {
                    "name": "minter",
                    "type": "address",
                    "internalType": "address"
                },
                {
                    "name": "isAllowed",
                    "type": "bool",
                    "internalType": "bool"
                }
            ],
            "outputs": [],
            "stateMutability": "nonpayable"
        },
        {
            "type": "function",
            "name": "symbol",
            "inputs": [],
            "outputs": [
                {
                    "name": "",
                    "type": "string",
                    "internalType": "string"
                }
            ],
            "stateMutability": "view"
        },
        {
            "type": "function",
            "name": "totalSupply",
            "inputs": [],
            "outputs": [
                {
                    "name": "",
                    "type": "uint256",
                    "internalType": "uint256"
                }
            ],
            "stateMutability": "view"
        },
        {
            "type": "function",
            "name": "transfer",
            "inputs": [
                {
                    "name": "to",
                    "type": "address",
                    "internalType": "address"
                },
                {
                    "name": "value",
                    "type": "uint256",
                    "internalType": "uint256"
                }
            ],
            "outputs": [
                {
                    "name": "",
                    "type": "bool",
                    "internalType": "bool"
                }
            ],
            "stateMutability": "nonpayable"
        },
        {
            "type": "function",
            "name": "transferFrom",
            "inputs": [
                {
                    "name": "from",
                    "type": "address",
                    "internalType": "address"
                },
                {
                    "name": "to",
                    "type": "address",
                    "internalType": "address"
                },
                {
                    "name": "value",
                    "type": "uint256",
                    "internalType": "uint256"
                }
            ],
            "outputs": [
                {
                    "name": "",
                    "type": "bool",
                    "internalType": "bool"
                }
            ],
            "stateMutability": "nonpayable"
        },
        {
            "type": "event",
            "name": "Approval",
            "inputs": [
                {
                    "name": "owner",
                    "type": "address",
                    "indexed": true,
                    "internalType": "address"
                },
                {
                    "name": "spender",
                    "type": "address",
                    "indexed": true,
                    "internalType": "address"
                },
                {
                    "name": "value",
                    "type": "uint256",
                    "indexed": false,
                    "internalType": "uint256"
                }
            ],
            "anonymous": false
        },
        {
            "type": "event",
            "name": "InitialSupplyMinted",
            "inputs": [
                {
                    "name": "to",
                    "type": "address",
                    "indexed": true,
                    "internalType": "address"
                },
                {
                    "name": "amount",
                    "type": "uint256",
                    "indexed": false,
                    "internalType": "uint256"
                }
            ],
            "anonymous": false
        },
        {
            "type": "event",
            "name": "MinterUpdated",
            "inputs": [
                {
                    "name": "minter",
                    "type": "address",
                    "indexed": true,
                    "internalType": "address"
                },
                {
                    "name": "status",
                    "type": "bool",
                    "indexed": false,
                    "internalType": "bool"
                }
            ],
            "anonymous": false
        },
        {
            "type": "event",
            "name": "Transfer",
            "inputs": [
                {
                    "name": "from",
                    "type": "address",
                    "indexed": true,
                    "internalType": "address"
                },
                {
                    "name": "to",
                    "type": "address",
                    "indexed": true,
                    "internalType": "address"
                },
                {
                    "name": "value",
                    "type": "uint256",
                    "indexed": false,
                    "internalType": "uint256"
                }
            ],
            "anonymous": false
        },
        {
            "type": "error",
            "name": "ERC20InsufficientAllowance",
            "inputs": [
                {
                    "name": "spender",
                    "type": "address",
                    "internalType": "address"
                },
                {
                    "name": "allowance",
                    "type": "uint256",
                    "internalType": "uint256"
                },
                {
                    "name": "needed",
                    "type": "uint256",
                    "internalType": "uint256"
                }
            ]
        },
        {
            "type": "error",
            "name": "ERC20InsufficientBalance",
            "inputs": [
                {
                    "name": "sender",
                    "type": "address",
                    "internalType": "address"
                },
                {
                    "name": "balance",
                    "type": "uint256",
                    "internalType": "uint256"
                },
                {
                    "name": "needed",
                    "type": "uint256",
                    "internalType": "uint256"
                }
            ]
        },
        {
            "type": "error",
            "name": "ERC20InvalidApprover",
            "inputs": [
                {
                    "name": "approver",
                    "type": "address",
                    "internalType": "address"
                }
            ]
        },
        {
            "type": "error",
            "name": "ERC20InvalidReceiver",
            "inputs": [
                {
                    "name": "receiver",
                    "type": "address",
                    "internalType": "address"
                }
            ]
        },
        {
            "type": "error",
            "name": "ERC20InvalidSender",
            "inputs": [
                {
                    "name": "sender",
                    "type": "address",
                    "internalType": "address"
                }
            ]
        },
        {
            "type": "error",
            "name": "ERC20InvalidSpender",
            "inputs": [
                {
                    "name": "spender",
                    "type": "address",
                    "internalType": "address"
                }
            ]
        },
        {
            "type": "error",
            "name": "InvalidInitialSupply",
            "inputs": []
        },
        {
            "type": "error",
            "name": "MaxSupplyExceeded",
            "inputs": []
        },
        {
            "type": "error",
            "name": "OnlyOwner",
            "inputs": []
        }
    ],
    "bytecode": {
        "object": "0x608060405234801561000f575f5ffd5b50604051611e61380380611e618339818101604052810190610031919061067e565b6040518060400160405280600881526020017f476f20486f7273650000000000000000000000000000000000000000000000008152506040518060400160405280600481526020017f474f484f0000000000000000000000000000000000000000000000000000000081525081600390816100ac91906108df565b5080600490816100bc91906108df565b5050503360055f6101000a81548173ffffffffffffffffffffffffffffffffffffffff021916908373ffffffffffffffffffffffffffffffffffffffff160217905550806006908161010e91906108df565b50600160075f3373ffffffffffffffffffffffffffffffffffffffff1673ffffffffffffffffffffffffffffffffffffffff1681526020019081526020015f205f6101000a81548160ff0219169083151502179055506101a860055f9054906101000a900473ffffffffffffffffffffffffffffffffffffffff16670de0b6b3a76400008461019d91906109db565b6101af60201b60201c565b5050610b04565b670de0b6b3a76400006113886101c591906109db565b8111156101fe576040517fc2c5358f00000000000000000000000000000000000000000000000000000000815260040160405180910390fd5b61020e828261026060201b60201c565b8173ffffffffffffffffffffffffffffffffffffffff167f0e9afdea29d93d82aeb661870b5f2ad12b3bd74d8526138188fe81fd920607ea826040516102549190610a2b565b60405180910390a25050565b5f73ffffffffffffffffffffffffffffffffffffffff168273ffffffffffffffffffffffffffffffffffffffff16036102d0575f6040517fec442f050000000000000000000000000000000000000000000000000000000081526004016102c79190610a83565b60405180910390fd5b6102e15f83836102e560201b60201c565b5050565b5f73ffffffffffffffffffffffffffffffffffffffff168373ffffffffffffffffffffffffffffffffffffffff1603610335578060025f8282546103299190610a9c565b92505081905550610403565b5f5f5f8573ffffffffffffffffffffffffffffffffffffffff1673ffffffffffffffffffffffffffffffffffffffff1681526020019081526020015f20549050818110156103be578381836040517fe450d38c0000000000000000000000000000000000000000000000000000000081526004016103b593929190610acf565b60405180910390fd5b8181035f5f8673ffffffffffffffffffffffffffffffffffffffff1673ffffffffffffffffffffffffffffffffffffffff1681526020019081526020015f2081905550505b5f73ffffffffffffffffffffffffffffffffffffffff168273ffffffffffffffffffffffffffffffffffffffff160361044a578060025f8282540392505081905550610494565b805f5f8473ffffffffffffffffffffffffffffffffffffffff1673ffffffffffffffffffffffffffffffffffffffff1681526020019081526020015f205f82825401925050819055505b8173ffffffffffffffffffffffffffffffffffffffff168373ffffffffffffffffffffffffffffffffffffffff167fddf252ad1be2c89b69c2b068fc378daa952ba7f163c4a11628f55a4df523b3ef836040516104f19190610a2b565b60405180910390a3505050565b5f604051905090565b5f5ffd5b5f5ffd5b5f819050919050565b6105218161050f565b811461052b575f5ffd5b50565b5f8151905061053c81610518565b92915050565b5f5ffd5b5f5ffd5b5f601f19601f8301169050919050565b7f4e487b71000000000000000000000000000000000000000000000000000000005f52604160045260245ffd5b6105908261054a565b810181811067ffffffffffffffff821117156105af576105ae61055a565b5b80604052505050565b5f6105c16104fe565b90506105cd8282610587565b919050565b5f67ffffffffffffffff8211156105ec576105eb61055a565b5b6105f58261054a565b9050602081019050919050565b8281835e5f83830152505050565b5f61062261061d846105d2565b6105b8565b90508281526020810184848401111561063e5761063d610546565b5b610649848285610602565b509392505050565b5f82601f83011261066557610664610542565b5b8151610675848260208601610610565b91505092915050565b5f5f6040838503121561069457610693610507565b5b5f6106a18582860161052e565b925050602083015167ffffffffffffffff8111156106c2576106c161050b565b5b6106ce85828601610651565b9150509250929050565b5f81519050919050565b7f4e487b71000000000000000000000000000000000000000000000000000000005f52602260045260245ffd5b5f600282049050600182168061072657607f821691505b602082108103610739576107386106e2565b5b50919050565b5f819050815f5260205f209050919050565b5f6020601f8301049050919050565b5f82821b905092915050565b5f6008830261079b7fffffffffffffffffffffffffffffffffffffffffffffffffffffffffffffffff82610760565b6107a58683610760565b95508019841693508086168417925050509392505050565b5f819050919050565b5f6107e06107db6107d68461050f565b6107bd565b61050f565b9050919050565b5f819050919050565b6107f9836107c6565b61080d610805826107e7565b84845461076c565b825550505050565b5f5f905090565b610824610815565b61082f8184846107f0565b505050565b5b81811015610852576108475f8261081c565b600181019050610835565b5050565b601f821115610897576108688161073f565b61087184610751565b81016020851015610880578190505b61089461088c85610751565b830182610834565b50505b505050565b5f82821c905092915050565b5f6108b75f198460080261089c565b1980831691505092915050565b5f6108cf83836108a8565b9150826002028217905092915050565b6108e8826106d8565b67ffffffffffffffff8111156109015761090061055a565b5b61090b825461070f565b610916828285610856565b5f60209050601f831160018114610947575f8415610935578287015190505b61093f85826108c4565b8655506109a6565b601f1984166109558661073f565b5f5b8281101561097c57848901518255600182019150602085019450602081019050610957565b868310156109995784890151610995601f8916826108a8565b8355505b6001600288020188555050505b505050505050565b7f4e487b71000000000000000000000000000000000000000000000000000000005f52601160045260245ffd5b5f6109e58261050f565b91506109f08361050f565b92508282026109fe8161050f565b91508282048414831517610a1557610a146109ae565b5b5092915050565b610a258161050f565b82525050565b5f602082019050610a3e5f830184610a1c565b92915050565b5f73ffffffffffffffffffffffffffffffffffffffff82169050919050565b5f610a6d82610a44565b9050919050565b610a7d81610a63565b82525050565b5f602082019050610a965f830184610a74565b92915050565b5f610aa68261050f565b9150610ab18361050f565b9250828201905080821115610ac957610ac86109ae565b5b92915050565b5f606082019050610ae25f830186610a74565b610aef6020830185610a1c565b610afc6040830184610a1c565b949350505050565b61135080610b115f395ff3fe608060405234801561000f575f5ffd5b50600436106100e8575f3560e01c806370a082311161008a578063a9059cbb11610064578063a9059cbb1461024c578063b03e75921461027c578063cf456ae71461029a578063dd62ed3e146102b6576100e8565b806370a08231146101e05780638da5cb5b1461021057806395d89b411461022e576100e8565b806323b872dd116100c657806323b872dd14610158578063313ce5671461018857806332cb6b0c146101a657806340c10f19146101c4576100e8565b806306fdde03146100ec578063095ea7b31461010a57806318160ddd1461013a575b5f5ffd5b6100f46102e6565b6040516101019190610eb8565b60405180910390f35b610124600480360381019061011f9190610f69565b610376565b6040516101319190610fc1565b60405180910390f35b610142610398565b60405161014f9190610fe9565b60405180910390f35b610172600480360381019061016d9190611002565b6103a1565b60405161017f9190610fc1565b60405180910390f35b6101906103cf565b60405161019d919061106d565b60405180910390f35b6101ae6103d7565b6040516101bb9190610fe9565b60405180910390f35b6101de60048036038101906101d99190610f69565b6103f0565b005b6101fa60048036038101906101f59190611086565b6104e8565b6040516102079190610fe9565b60405180910390f35b61021861052d565b60405161022591906110c0565b60405180910390f35b610236610555565b6040516102439190610eb8565b60405180910390f35b61026660048036038101906102619190610f69565b6105e5565b6040516102739190610fc1565b60405180910390f35b610284610607565b6040516102919190610eb8565b60405180910390f35b6102b460048036038101906102af9190611103565b610697565b005b6102d060048036038101906102cb9190611141565b6107c3565b6040516102dd9190610fe9565b60405180910390f35b6060600380546102f5906111ac565b80601f0160208091040260200160405190810160405280929190818152602001828054610321906111ac565b801561036c5780601f106103435761010080835404028352916020019161036c565b820191905f5260205f20905b81548152906001019060200180831161034f57829003601f168201915b5050505050905090565b5f5f610380610845565b905061038d81858561084c565b600191505092915050565b5f600254905090565b5f5f6103ab610845565b90506103b885828561085e565b6103c38585856108f1565b60019150509392505050565b5f6012905090565b670de0b6b3a76400006113886103ed9190611209565b81565b60075f3373ffffffffffffffffffffffffffffffffffffffff1673ffffffffffffffffffffffffffffffffffffffff1681526020019081526020015f205f9054906101000a900460ff16610479576040517f08c379a000000000000000000000000000000000000000000000000000000000815260040161047090611294565b60405180910390fd5b670de0b6b3a764000061138861048f9190611209565b81610498610398565b6104a291906112b2565b11156104da576040517f8a164f6300000000000000000000000000000000000000000000000000000000815260040160405180910390fd5b6104e482826109e1565b5050565b5f5f5f8373ffffffffffffffffffffffffffffffffffffffff1673ffffffffffffffffffffffffffffffffffffffff1681526020019081526020015f20549050919050565b5f60055f9054906101000a900473ffffffffffffffffffffffffffffffffffffffff16905090565b606060048054610564906111ac565b80601f0160208091040260200160405190810160405280929190818152602001828054610590906111ac565b80156105db5780601f106105b2576101008083540402835291602001916105db565b820191905f5260205f20905b8154815290600101906020018083116105be57829003601f168201915b5050505050905090565b5f5f6105ef610845565b90506105fc8185856108f1565b600191505092915050565b606060068054610616906111ac565b80601f0160208091040260200160405190810160405280929190818152602001828054610642906111ac565b801561068d5780601f106106645761010080835404028352916020019161068d565b820191905f5260205f20905b81548152906001019060200180831161067057829003601f168201915b5050505050905090565b60055f9054906101000a900473ffffffffffffffffffffffffffffffffffffffff1673ffffffffffffffffffffffffffffffffffffffff163373ffffffffffffffffffffffffffffffffffffffff161461071d576040517f5fc483c500000000000000000000000000000000000000000000000000000000815260040160405180910390fd5b8060075f8473ffffffffffffffffffffffffffffffffffffffff1673ffffffffffffffffffffffffffffffffffffffff1681526020019081526020015f205f6101000a81548160ff0219169083151502179055508173ffffffffffffffffffffffffffffffffffffffff167fb21afb9ce9be0a676f8f317ff0ca072fb89a4f8ce2d1b6fe80f8755c14f1cb19826040516107b79190610fc1565b60405180910390a25050565b5f60015f8473ffffffffffffffffffffffffffffffffffffffff1673ffffffffffffffffffffffffffffffffffffffff1681526020019081526020015f205f8373ffffffffffffffffffffffffffffffffffffffff1673ffffffffffffffffffffffffffffffffffffffff1681526020019081526020015f2054905092915050565b5f33905090565b6108598383836001610a60565b505050565b5f61086984846107c3565b90507fffffffffffffffffffffffffffffffffffffffffffffffffffffffffffffffff8110156108eb57818110156108dc578281836040517ffb8f41b20000000000000000000000000000000000000000000000000000000081526004016108d3939291906112e5565b60405180910390fd5b6108ea84848484035f610a60565b5b50505050565b5f73ffffffffffffffffffffffffffffffffffffffff168373ffffffffffffffffffffffffffffffffffffffff1603610961575f6040517f96c6fd1e00000000000000000000000000000000000000000000000000000000815260040161095891906110c0565b60405180910390fd5b5f73ffffffffffffffffffffffffffffffffffffffff168273ffffffffffffffffffffffffffffffffffffffff16036109d1575f6040517fec442f050000000000000000000000000000000000000000000000000000000081526004016109c891906110c0565b60405180910390fd5b6109dc838383610c2f565b505050565b5f73ffffffffffffffffffffffffffffffffffffffff168273ffffffffffffffffffffffffffffffffffffffff1603610a51575f6040517fec442f05000000000000000000000000000000000000000000000000000000008152600401610a4891906110c0565b60405180910390fd5b610a5c5f8383610c2f565b5050565b5f73ffffffffffffffffffffffffffffffffffffffff168473ffffffffffffffffffffffffffffffffffffffff1603610ad0575f6040517fe602df05000000000000000000000000000000000000000000000000000000008152600401610ac791906110c0565b60405180910390fd5b5f73ffffffffffffffffffffffffffffffffffffffff168373ffffffffffffffffffffffffffffffffffffffff1603610b40575f6040517f94280d62000000000000000000000000000000000000000000000000000000008152600401610b3791906110c0565b60405180910390fd5b8160015f8673ffffffffffffffffffffffffffffffffffffffff1673ffffffffffffffffffffffffffffffffffffffff1681526020019081526020015f205f8573ffffffffffffffffffffffffffffffffffffffff1673ffffffffffffffffffffffffffffffffffffffff1681526020019081526020015f20819055508015610c29578273ffffffffffffffffffffffffffffffffffffffff168473ffffffffffffffffffffffffffffffffffffffff167f8c5be1e5ebec7d5bd14f71427d1e84f3dd0314c0f7b2291e5b200ac8c7c3b92584604051610c209190610fe9565b60405180910390a35b50505050565b5f73ffffffffffffffffffffffffffffffffffffffff168373ffffffffffffffffffffffffffffffffffffffff1603610c7f578060025f828254610c7391906112b2565b92505081905550610d4d565b5f5f5f8573ffffffffffffffffffffffffffffffffffffffff1673ffffffffffffffffffffffffffffffffffffffff1681526020019081526020015f2054905081811015610d08578381836040517fe450d38c000000000000000000000000000000000000000000000000000000008152600401610cff939291906112e5565b60405180910390fd5b8181035f5f8673ffffffffffffffffffffffffffffffffffffffff1673ffffffffffffffffffffffffffffffffffffffff1681526020019081526020015f2081905550505b5f73ffffffffffffffffffffffffffffffffffffffff168273ffffffffffffffffffffffffffffffffffffffff1603610d94578060025f8282540392505081905550610dde565b805f5f8473ffffffffffffffffffffffffffffffffffffffff1673ffffffffffffffffffffffffffffffffffffffff1681526020019081526020015f205f82825401925050819055505b8173ffffffffffffffffffffffffffffffffffffffff168373ffffffffffffffffffffffffffffffffffffffff167fddf252ad1be2c89b69c2b068fc378daa952ba7f163c4a11628f55a4df523b3ef83604051610e3b9190610fe9565b60405180910390a3505050565b5f81519050919050565b5f82825260208201905092915050565b8281835e5f83830152505050565b5f601f19601f8301169050919050565b5f610e8a82610e48565b610e948185610e52565b9350610ea4818560208601610e62565b610ead81610e70565b840191505092915050565b5f6020820190508181035f830152610ed08184610e80565b905092915050565b5f5ffd5b5f73ffffffffffffffffffffffffffffffffffffffff82169050919050565b5f610f0582610edc565b9050919050565b610f1581610efb565b8114610f1f575f5ffd5b50565b5f81359050610f3081610f0c565b92915050565b5f819050919050565b610f4881610f36565b8114610f52575f5ffd5b50565b5f81359050610f6381610f3f565b92915050565b5f5f60408385031215610f7f57610f7e610ed8565b5b5f610f8c85828601610f22565b9250506020610f9d85828601610f55565b9150509250929050565b5f8115159050919050565b610fbb81610fa7565b82525050565b5f602082019050610fd45f830184610fb2565b92915050565b610fe381610f36565b82525050565b5f602082019050610ffc5f830184610fda565b92915050565b5f5f5f6060848603121561101957611018610ed8565b5b5f61102686828701610f22565b935050602061103786828701610f22565b925050604061104886828701610f55565b9150509250925092565b5f60ff82169050919050565b61106781611052565b82525050565b5f6020820190506110805f83018461105e565b92915050565b5f6020828403121561109b5761109a610ed8565b5b5f6110a884828501610f22565b91505092915050565b6110ba81610efb565b82525050565b5f6020820190506110d35f8301846110b1565b92915050565b6110e281610fa7565b81146110ec575f5ffd5b50565b5f813590506110fd816110d9565b92915050565b5f5f6040838503121561111957611118610ed8565b5b5f61112685828601610f22565b9250506020611137858286016110ef565b9150509250929050565b5f5f6040838503121561115757611156610ed8565b5b5f61116485828601610f22565b925050602061117585828601610f22565b9150509250929050565b7f4e487b71000000000000000000000000000000000000000000000000000000005f52602260045260245ffd5b5f60028204905060018216806111c357607f821691505b6020821081036111d6576111d561117f565b5b50919050565b7f4e487b71000000000000000000000000000000000000000000000000000000005f52601160045260245ffd5b5f61121382610f36565b915061121e83610f36565b925082820261122c81610f36565b91508282048414831517611243576112426111dc565b5b5092915050565b7f4e6f7420617574686f72697a656420746f206d696e74000000000000000000005f82015250565b5f61127e601683610e52565b91506112898261124a565b602082019050919050565b5f6020820190508181035f8301526112ab81611272565b9050919050565b5f6112bc82610f36565b91506112c783610f36565b92508282019050808211156112df576112de6111dc565b5b92915050565b5f6060820190506112f85f8301866110b1565b6113056020830185610fda565b6113126040830184610fda565b94935050505056fea2646970667358221220ea0a228ecf4e09d0da3ecf878f9b040bad373ab1195438af0d8b26d74616480d64736f6c634300081c0033",
        "linkReferences": {}
    },
    "methodIdentifiers": {
        "MAX_SUPPLY()": "32cb6b0c",
        "allowance(address,address)": "dd62ed3e",
        "approve(address,uint256)": "095ea7b3",
        "balanceOf(address)": "70a08231",
        "decimals()": "313ce567",
        "getMetadataUrl()": "b03e7592",
        "mint(address,uint256)": "40c10f19",
        "name()": "06fdde03",
        "owner()": "8da5cb5b",
        "setMinter(address,bool)": "cf456ae7",
        "symbol()": "95d89b41",
        "totalSupply()": "18160ddd",
        "transfer(address,uint256)": "a9059cbb",
        "transferFrom(address,address,uint256)": "23b872dd"
    },
    "id": 21
}